8=FIX.4.2|9=68|35=A|34=1|49=OMS|52=20080811-01:11:29.890|56=STREAMBASE|98=0|108=30|10=219|8=FIX.4.2|9=138|35=D|34=2|49=OMS|52=20080811-01:11:47.828|56=STREAMBASE|11=1218417107720|21=1|38=100|40=2|44=80|54=1|55=IBM|59=0|60=20080811-01:11:47.828|10=039|8=FIX.4.2|9=56|35=0|34=3|49=OMS|52=20080811-01:12:17.828|56=STREAMBASE|10=175|8=FIX.4.2|9=56|35=0|34=4|49=OMS|52=20080811-01:12:47.828|56=STREAMBASE|10=179|8=FIX.4.2|9=56|35=0|34=5|49=OMS|52=20080811-01:13:17.828|56=STREAMBASE|10=178|8=FIX.4.2|9=56|35=0|34=6|49=OMS|52=20080811-01:13:47.828|56=STREAMBASE|10=182|8=FIX.4.2|9=56|35=0|34=7|49=OMS|52=20080811-01:14:17.828|56=STREAMBASE|10=181|8=FIX.4.2|9=56|35=0|34=8|49=OMS|52=20080811-01:14:47.828|56=STREAMBASE|10=185|8=FIX.4.2|9=56|35=0|34=9|49=OMS|52=20080811-01:15:17.828|56=STREAMBASE|10=184|8=FIX.4.2|9=57|35=0|34=10|49=OMS|52=20080811-01:15:47.828|56=STREAMBASE|10=228|8=FIX.4.2|9=57|35=0|34=11|49=OMS|52=20080811-01:16:17.828|56=STREAMBASE|10=227|8=FIX.4.2|9=57|35=0|34=12|49=OMS|52=20080811-01:16:47.828|56=STREAMBASE|10=231|8=FIX.4.2|9=57|35=0|34=13|49=OMS|52=20080811-01:17:17.828|56=STREAMBASE|10=230|8=FIX.4.2|9=57|35=0|34=14|49=OMS|52=20080811-01:17:47.828|56=STREAMBASE|10=234|8=FIX.4.2|9=57|35=0|34=15|49=OMS|52=20080811-01:18:17.828|56=STREAMBASE|10=233|8=FIX.4.2|9=57|35=0|34=16|49=OMS|52=20080811-01:18:47.828|56=STREAMBASE|10=237|8=FIX.4.2|9=57|35=0|34=17|49=OMS|52=20080811-01:19:17.828|56=STREAMBASE|10=236|8=FIX.4.2|9=139|35=D|34=18|49=OMS|52=20080811-01:19:17.859|56=STREAMBASE|11=1218417557865|21=1|38=100|40=2|44=80|54=1|55=IBM|59=0|60=20080811-01:19:17.859|10=132|8=FIX.4.2|9=139|35=D|34=19|49=OMS|52=20080811-01:19:18.968|56=STREAMBASE|11=1218417558977|21=1|38=100|40=2|44=80|54=1|55=IBM|59=0|60=20080811-01:19:18.968|10=142|8=FIX.4.2|9=139|35=D|34=20|49=OMS|52=20080811-01:19:19.687|56=STREAMBASE|11=1218417559699|21=1|38=100|40=2|44=80|54=1|55=IBM|59=0|60=20080811-01:19:19.687|10=134|8=FIX.4.2|9=139|35=D|34=21|49=OMS|52=20080811-01:19:20.312|56=STREAMBASE|11=1218417560327|21=1|38=100|40=2|44=80|54=1|55=IBM|59=0|60=20080811-01:19:20.312|10=069|8=FIX.4.2|9=139|35=D|34=22|49=OMS|52=20080811-01:19:23.578|56=STREAMBASE|11=1218417563596|21=1|38=100|40=2|44=80|54=1|55=IBM|59=0|60=20080811-01:19:23.578|10=115|8=FIX.4.2|9=139|35=D|34=23|49=OMS|52=20080811-01:19:27.015|56=STREAMBASE|11=1218417567041|21=1|38=100|40=2|44=80|54=1|55=IBM|59=0|60=20080811-01:19:27.015|10=085|8=FIX.4.2|9=139|35=D|34=24|49=OMS|52=20080811-01:19:27.437|56=STREAMBASE|11=1218417567466|21=1|38=100|40=2|44=80|54=1|55=IBM|59=0|60=20080811-01:19:27.437|10=113|8=FIX.4.2|9=139|35=D|34=25|49=OMS|52=20080811-01:19:27.640|56=STREAMBASE|11=1218417567672|21=1|38=100|40=2|44=80|54=1|55=IBM|59=0|60=20080811-01:19:27.640|10=105|8=FIX.4.2|9=139|35=D|34=26|49=OMS|52=20080811-01:19:27.859|56=STREAMBASE|11=1218417567894|21=1|38=100|40=2|44=80|54=1|55=IBM|59=0|60=20080811-01:19:27.859|10=136|8=FIX.4.2|9=57|35=0|34=27|49=OMS|52=20080811-01:19:58.828|56=STREAMBASE|10=242|8=FIX.4.2|9=57|35=0|34=28|49=OMS|52=20080811-01:20:29.812|56=STREAMBASE|10=226|8=FIX.4.2|9=139|35=D|34=29|49=OMS|52=20080811-01:20:52.843|56=STREAMBASE|11=1218417652885|21=1|38=100|40=2|44=80|54=1|55=IBM|59=0|60=20080811-01:20:52.843|10=100|8=FIX.4.2|9=57|35=0|34=30|49=OMS|52=20080811-01:21:23.812|56=STREAMBASE|10=214|8=FIX.4.2|9=57|35=0|34=31|49=OMS|52=20080811-01:21:53.812|56=STREAMBASE|10=218|8=FIX.4.2|9=57|35=0|34=32|49=OMS|52=20080811-01:22:23.812|56=STREAMBASE|10=217|8=FIX.4.2|9=57|35=0|34=33|49=OMS|52=20080811-01:22:53.812|56=STREAMBASE|10=221|8=FIX.4.2|9=57|35=0|34=34|49=OMS|52=20080811-01:23:23.812|56=STREAMBASE|10=220|8=FIX.4.2|9=57|35=0|34=35|49=OMS|52=20080811-01:23:53.812|56=STREAMBASE|10=224|8=FIX.4.2|9=57|35=0|34=36|49=OMS|52=20080811-01:24:23.812|56=STREAMBASE|10=223|8=FIX.4.2|9=57|35=0|34=37|49=OMS|52=20080811-01:24:53.812|56=STREAMBASE|10=227|8=FIX.4.2|9=57|35=0|34=38|49=OMS|52=20080811-01:25:23.812|56=STREAMBASE|10=226|8=FIX.4.2|9=57|35=0|34=39|49=OMS|52=20080811-01:25:53.812|56=STREAMBASE|10=230|8=FIX.4.2|9=139|35=D|34=40|49=OMS|52=20080811-01:26:06.187|56=STREAMBASE|11=1218417966233|21=1|38=100|40=2|44=80|54=1|55=IBM|59=0|60=20080811-01:26:06.187|10=100|8=FIX.4.2|9=57|35=0|34=41|49=OMS|52=20080811-01:26:36.812|56=STREAMBASE|10=225|8=FIX.4.2|9=57|35=0|34=42|49=OMS|52=20080811-01:27:06.812|56=STREAMBASE|10=224|8=FIX.4.2|9=57|35=0|34=43|49=OMS|52=20080811-01:27:36.812|56=STREAMBASE|10=228|8=FIX.4.2|9=57|35=0|34=44|49=OMS|52=20080811-01:28:06.812|56=STREAMBASE|10=227|8=FIX.4.2|9=57|35=0|34=45|49=OMS|52=20080811-01:28:36.812|56=STREAMBASE|10=231|8=FIX.4.2|9=57|35=0|34=46|49=OMS|52=20080811-01:29:06.812|56=STREAMBASE|10=230|8=FIX.4.2|9=57|35=0|34=47|49=OMS|52=20080811-01:29:37.796|56=STREAMBASE|10=246|8=FIX.4.2|9=57|35=0|34=48|49=OMS|52=20080811-01:30:07.812|56=STREAMBASE|10=225|8=FIX.4.2|9=57|35=0|34=49|49=OMS|52=20080811-01:30:38.796|56=STREAMBASE|10=241|8=FIX.4.2|9=57|35=0|34=50|49=OMS|52=20080811-01:31:08.796|56=STREAMBASE|10=231|8=FIX.4.2|9=57|35=0|34=51|49=OMS|52=20080811-01:31:38.796|56=STREAMBASE|10=235|8=FIX.4.2|9=57|35=0|34=52|49=OMS|52=20080811-01:32:08.796|56=STREAMBASE|10=234|8=FIX.4.2|9=57|35=0|34=53|49=OMS|52=20080811-01:32:38.796|56=STREAMBASE|10=238|8=FIX.4.2|9=57|35=0|34=54|49=OMS|52=20080811-01:33:08.796|56=STREAMBASE|10=237|8=FIX.4.2|9=57|35=0|34=55|49=OMS|52=20080811-01:33:38.796|56=STREAMBASE|10=241|8=FIX.4.2|9=57|35=0|34=56|49=OMS|52=20080811-01:34:08.796|56=STREAMBASE|10=240|8=FIX.4.2|9=57|35=0|34=57|49=OMS|52=20080811-01:34:38.796|56=STREAMBASE|10=244|8=FIX.4.2|9=57|35=0|34=58|49=OMS|52=20080811-01:35:08.796|56=STREAMBASE|10=243|8=FIX.4.2|9=57|35=0|34=59|49=OMS|52=20080811-01:35:38.796|56=STREAMBASE|10=247|8=FIX.4.2|9=57|35=0|34=60|49=OMS|52=20080811-01:36:08.796|56=STREAMBASE|10=237|8=FIX.4.2|9=57|35=0|34=61|49=OMS|52=20080811-01:36:38.796|56=STREAMBASE|10=241|8=FIX.4.2|9=57|35=0|34=62|49=OMS|52=20080811-01:37:08.796|56=STREAMBASE|10=240|8=FIX.4.2|9=57|35=0|34=63|49=OMS|52=20080811-01:37:38.796|56=STREAMBASE|10=244|8=FIX.4.2|9=57|35=0|34=64|49=OMS|52=20080811-01:38:08.796|56=STREAMBASE|10=243|8=FIX.4.2|9=57|35=0|34=65|49=OMS|52=20080811-01:38:38.796|56=STREAMBASE|10=247|8=FIX.4.2|9=57|35=0|34=66|49=OMS|52=20080811-01:39:08.796|56=STREAMBASE|10=246|8=FIX.4.2|9=139|35=D|34=67|49=OMS|52=20080811-01:39:09.468|56=STREAMBASE|11=1218418749518|21=1|38=100|40=2|44=80|54=1|55=IBM|59=0|60=20080811-01:39:09.468|10=133|8=FIX.4.2|9=57|35=0|34=68|49=OMS|52=20080811-01:39:39.796|56=STREAMBASE|10=252|8=FIX.4.2|9=57|35=0|34=69|49=OMS|52=20080811-01:40:09.796|56=STREAMBASE|10=242|8=FIX.4.2|9=57|35=0|34=70|49=OMS|52=20080811-01:40:39.796|56=STREAMBASE|10=237|8=FIX.4.2|9=57|35=0|34=71|49=OMS|52=20080811-01:41:09.796|56=STREAMBASE|10=236|8=FIX.4.2|9=57|35=0|34=72|49=OMS|52=20080811-01:41:39.796|56=STREAMBASE|10=240|8=FIX.4.2|9=57|35=0|34=73|49=OMS|52=20080811-01:42:09.796|56=STREAMBASE|10=239|8=FIX.4.2|9=57|35=0|34=74|49=OMS|52=20080811-01:42:40.781|56=STREAMBASE|10=229|8=FIX.4.2|9=69|35=A|34=75|49=OMS|52=20080811-01:42:53.484|56=STREAMBASE|98=0|108=30|10=023|8=FIX.4.2|9=139|35=D|34=76|49=OMS|52=20080811-01:43:22.750|56=STREAMBASE|11=1218419002658|21=1|38=100|40=2|44=10|54=1|55=IBM|59=0|60=20080811-01:43:22.750|10=082|8=FIX.4.2|9=57|35=0|34=77|49=OMS|52=20080811-01:43:53.437|56=STREAMBASE|10=235|8=FIX.4.2|9=57|35=0|34=78|49=OMS|52=20080811-01:44:23.437|56=STREAMBASE|10=234|8=FIX.4.2|9=57|35=0|34=79|49=OMS|52=20080811-01:44:53.437|56=STREAMBASE|10=238|8=FIX.4.2|9=57|35=0|34=80|49=OMS|52=20080811-01:45:23.437|56=STREAMBASE|10=228|8=FIX.4.2|9=57|35=0|34=81|49=OMS|52=20080811-01:45:53.437|56=STREAMBASE|10=232|8=FIX.4.2|9=69|35=A|34=82|49=OMS|52=20080811-01:46:24.031|56=STREAMBASE|98=0|108=FIX.4.2|9=57|35=0|34=83|49=OMS|52=20080811-01:46:53.437|56=STREAMBASE|10=235|8=FIX.4.2|9=57|35=0|34=84|49=OMS|52=20080811-01:47:23.437|56=STREAMBASE|10=234|8=FIX.4.2|9=57|35=0|34=85|49=OMS|52=20080811-01:47:53.437|56=STREAMBASE|10=238|8=FIX.4.2|9=57|35=0|34=86|49=OMS|52=20080811-01:48:23.437|56=STREAMBASE|10=237|8=FIX.4.2|9=57|35=0|34=87|49=OMS|52=20080811-01:48:53.437|56=STREAMBASE|10=241|8=FIX.4.2|9=57|35=0|34=88|49=OMS|52=20080811-01:49:23.437|56=STREAMBASE|10=240|8=FIX.4.2|9=57|35=0|34=89|49=OMS|52=20080811-01:49:53.437|56=STREAMBASE|10=244|8=FIX.4.2|9=57|35=0|34=90|49=OMS|52=20080811-01:50:23.437|56=STREAMBASE|10=225|8=FIX.4.2|9=57|35=0|34=91|49=OMS|52=20080811-01:50:54.421|56=STREAMBASE|10=223|8=FIX.4.2|9=57|35=0|34=92|49=OMS|52=20080811-01:51:24.421|56=STREAMBASE|10=222|8=FIX.4.2|9=57|35=0|34=93|49=OMS|52=20080811-01:51:54.421|56=STREAMBASE|10=226|8=FIX.4.2|9=57|35=0|34=94|49=OMS|52=20080811-01:52:24.421|56=STREAMBASE|10=225|8=FIX.4.2|9=57|35=0|34=95|49=OMS|52=20080811-01:52:54.421|56=STREAMBASE|10=229|8=FIX.4.2|9=57|35=0|34=96|49=OMS|52=20080811-01:53:24.421|56=STREAMBASE|10=228|8=FIX.4.2|9=57|35=0|34=97|49=OMS|52=20080811-01:53:54.421|56=STREAMBASE|10=232|8=FIX.4.2|9=57|35=0|34=98|49=OMS|52=20080811-01:54:24.421|56=STREAMBASE|10=231|8=FIX.4.2|9=57|35=0|34=99|49=OMS|52=20080811-01:54:54.421|56=STREAMBASE|10=235|8=FIX.4.2|9=58|35=0|34=100|49=OMS|52=20080811-01:55:24.421|56=STREAMBASE|10=009|8=FIX.4.2|9=58|35=0|34=101|49=OMS|52=20080811-01:55:54.421|56=STREAMBASE|10=013|8=FIX.4.2|9=58|35=0|34=102|49=OMS|52=20080811-01:56:24.421|56=STREAMBASE|10=012|8=FIX.4.2|9=58|35=0|34=103|49=OMS|52=20080811-01:56:54.421|56=STREAMBASE|10=016|8=FIX.4.2|9=70|35=A|34=104|49=OMS|52=20080811-01:57:32.203|56=STREAMBASE|98=0|108=30|10=048|8=FIX.4.2|9=140|35=D|34=105|49=OMS|52=20080811-01:57:44.421|56=STREAMBASE|11=1218419864314|21=1|38=199|40=2|44=10|54=1|55=IBM|59=0|60=20080811-01:57:44.406|10=149|8=FIX.4.2|9=58|35=0|34=106|49=OMS|52=20080811-01:58:15.156|56=STREAMBASE|10=023|8=FIX.4.2|9=58|35=0|34=107|49=OMS|52=20080811-01:58:45.156|56=STREAMBASE|10=027|8=FIX.4.2|9=140|35=D|34=108|49=OMS|52=20080811-01:58:55.234|56=STREAMBASE|11=1218419935241|21=1|38=199|40=2|44=10|54=1|55=IBM|59=0|60=20080811-01:58:55.234|10=157|8=FIX.4.2|9=58|35=0|34=109|49=OMS|52=20080811-01:59:26.156|56=STREAMBASE|10=029|8=FIX.4.2|9=58|35=0|34=110|49=OMS|52=20080811-01:59:57.156|56=STREAMBASE|10=025|8=FIX.4.2|9=58|35=0|34=111|49=OMS|52=20080811-02:00:28.140|56=STREAMBASE|10=004|8=FIX.4.2|9=58|35=0|34=112|49=OMS|52=20080811-02:00:58.156|56=STREAMBASE|10=015|8=FIX.4.2|9=58|35=0|34=113|49=OMS|52=20080811-02:01:29.140|56=STREAMBASE|10=008|8=FIX.4.2|9=58|35=0|34=114|49=OMS|52=20080811-02:01:59.140|56=STREAMBASE|10=012|8=FIX.4.2|9=58|35=0|34=115|49=OMS|52=20080811-02:02:29.140|56=STREAMBASE|10=011|8=FIX.4.2|9=58|35=0|34=116|49=OMS|52=20080811-02:02:59.140|56=STREAMBASE|10=015|8=FIX.4.2|9=58|35=0|34=117|49=OMS|52=20080811-02:03:29.140|56=STREAMBASE|10=014|8=FIX.4.2|9=58|35=0|34=118|49=OMS|52=20080811-02:03:59.140|56=STREAMBASE|10=018|8=FIX.4.2|9=70|35=A|34=119|49=OMS|52=20080811-02:33:34.296|56=STREAMBASE|98=0|108=30|10=063|8=FIX.4.2|9=141|35=D|34=120|49=OMS|52=20080811-02:33:50.234|56=STREAMBASE|11=1218422030142|21=1|38=100|40=2|44=100|54=1|55=IBM|59=0|60=20080811-02:33:50.234|10=140|8=FIX.4.2|9=58|35=0|34=121|49=OMS|52=20080811-02:34:21.218|56=STREAMBASE|10=011|8=FIX.4.2|9=141|35=D|34=122|49=OMS|52=20080811-02:34:41.515|56=STREAMBASE|11=1218422081521|21=1|38=100|40=2|44=100|54=1|55=IBM|59=0|60=20080811-02:34:41.515|10=155|8=FIX.4.2|9=141|35=D|34=123|49=OMS|52=20080811-02:34:47.687|56=STREAMBASE|11=1218422087696|21=1|38=100|40=2|44=100|54=1|55=IBM|59=0|60=20080811-02:34:47.687|10=207|8=FIX.4.2|9=141|35=D|34=124|49=OMS|52=20080811-02:34:56.015|56=STREAMBASE|11=1218422096012|21=1|38=100|40=2|44=100|54=1|55=IBM|59=0|60=20080811-02:34:56.015|10=160|8=FIX.4.2|9=141|35=D|34=125|49=OMS|52=20080811-02:35:01.609|56=STREAMBASE|11=1218422101624|21=1|38=100|40=2|44=100|54=1|55=IBM|59=0|60=20080811-02:35:01.609|10=157|8=FIX.4.2|9=141|35=D|34=126|49=OMS|52=20080811-02:35:05.390|56=STREAMBASE|11=1218422105408|21=1|38=100|40=2|44=100|54=1|55=IBM|59=0|60=20080811-02:35:05.390|10=164|8=FIX.4.2|9=141|35=D|34=127|49=OMS|52=20080811-02:35:06.390|56=STREAMBASE|11=1218422106411|21=1|38=100|40=2|44=100|54=1|55=IBM|59=0|60=20080811-02:35:06.390|10=162|8=FIX.4.2|9=141|35=D|34=128|49=OMS|52=20080811-02:35:07.109|56=STREAMBASE|11=1218422107117|21=1|38=100|40=2|44=100|54=1|55=IBM|59=0|60=20080811-02:35:07.109|10=165|8=FIX.4.2|9=141|35=D|34=129|49=OMS|52=20080811-02:35:07.750|56=STREAMBASE|11=1218422107777|21=1|38=100|40=2|44=100|54=1|55=IBM|59=0|60=20080811-02:35:07.750|10=182|8=FIX.4.2|9=141|35=D|34=130|49=OMS|52=20080811-02:35:08.421|56=STREAMBASE|11=1218422108451|21=1|38=100|40=2|44=100|54=1|55=IBM|59=0|60=20080811-02:35:08.421|10=156|8=FIX.4.2|9=141|35=D|34=131|49=OMS|52=20080811-02:35:09.078|56=STREAMBASE|11=1218422109095|21=1|38=100|40=2|44=100|54=1|55=IBM|59=0|60=20080811-02:35:09.078|10=180|8=FIX.4.2|9=141|35=D|34=132|49=OMS|52=20080811-02:35:09.812|56=STREAMBASE|11=1218422109848|21=1|38=100|40=2|44=100|54=1|55=IBM|59=0|60=20080811-02:35:09.812|10=179|8=FIX.4.2|9=141|35=D|34=133|49=OMS|52=20080811-02:35:12.265|56=STREAMBASE|11=1218422112304|21=1|38=100|40=2|44=100|54=1|55=IBM|59=0|60=20080811-02:35:12.265|10=153|8=FIX.4.2|9=141|35=D|34=134|49=OMS|52=20080811-02:35:13.218|56=STREAMBASE|11=1218422113260|21=1|38=100|40=2|44=100|54=1|55=IBM|59=0|60=20080811-02:35:13.218|10=154|8=FIX.4.2|9=141|35=D|34=135|49=OMS|52=20080811-02:35:14.390|56=STREAMBASE|11=1218422114435|21=1|38=100|40=2|44=100|54=1|55=IBM|59=0|60=20080811-02:35:14.390|10=164|8=FIX.4.2|9=70|35=A|34=136|49=OMS|52=20080811-02:47:03.031|56=STREAMBASE|98=0|108=30|10=050|8=FIX.4.2|9=140|35=D|34=137|49=OMS|52=20080811-02:47:21.062|56=STREAMBASE|11=1218422840970|21=1|38=100|40=2|44=10|54=1|55=IBM|59=0|60=20080811-02:47:21.046|10=123|8=FIX.4.2|9=58|35=0|34=138|49=OMS|52=20080811-02:47:51.984|56=STREAMBASE|10=036|8=FIX.4.2|9=58|35=0|34=139|49=OMS|52=20080811-02:48:21.984|56=STREAMBASE|10=035|8=FIX.4.2|9=58|35=0|34=140|49=OMS|52=20080811-02:48:51.984|56=STREAMBASE|10=030|8=FIX.4.2|9=58|35=0|34=141|49=OMS|52=20080811-02:49:21.984|56=STREAMBASE|10=029|8=FIX.4.2|9=58|35=0|34=142|49=OMS|52=20080811-02:49:52.968|56=STREAMBASE|10=036|8=FIX.4.2|9=58|35=0|34=143|49=OMS|52=20080811-02:50:22.984|56=STREAMBASE|10=024|8=FIX.4.2|9=58|35=0|34=144|49=OMS|52=20080811-02:50:53.968|56=STREAMBASE|10=031|8=FIX.4.2|9=58|35=0|34=145|49=OMS|52=20080811-02:51:23.968|56=STREAMBASE|10=030|8=FIX.4.2|9=58|35=0|34=146|49=OMS|52=20080811-02:51:53.968|56=STREAMBASE|10=034|8=FIX.4.2|9=58|35=0|34=147|49=OMS|52=20080811-02:52:23.968|56=STREAMBASE|10=033|8=FIX.4.2|9=58|35=0|34=148|49=OMS|52=20080811-02:52:53.968|56=STREAMBASE|10=037|8=FIX.4.2|9=58|35=0|34=149|49=OMS|52=20080811-02:53:23.968|56=STREAMBASE|10=036|8=FIX.4.2|9=140|35=D|34=150|49=OMS|52=20080811-02:53:50.828|56=STREAMBASE|11=1218423230834|21=1|38=100|40=2|44=10|54=1|55=IBM|59=0|60=20080811-02:53:50.828|10=127|8=FIX.4.2|9=70|35=A|34=151|49=OMS|52=20080811-02:55:43.546|56=STREAMBASE|98=0|108=30|10=061|8=FIX.4.2|9=140|35=D|34=152|49=OMS|52=20080811-02:55:56.281|56=STREAMBASE|11=1218423356205|21=1|38=100|40=2|44=10|54=1|55=IBM|59=0|60=20080811-02:55:56.281|10=132|8=FIX.4.2|9=58|35=0|34=153|49=OMS|52=20080811-02:56:26.500|56=STREAMBASE|10=019|8=FIX.4.2|9=58|35=0|34=154|49=OMS|52=20080811-02:56:56.500|56=STREAMBASE|10=023|8=FIX.4.2|9=58|35=0|34=155|49=OMS|52=20080811-02:57:26.500|56=STREAMBASE|10=022|8=FIX.4.2|9=58|35=0|34=156|49=OMS|52=20080811-02:57:56.500|56=STREAMBASE|10=026|8=FIX.4.2|9=58|35=0|34=157|49=OMS|52=20080811-02:58:26.500|56=STREAMBASE|10=025|8=FIX.4.2|9=58|35=0|34=158|49=OMS|52=20080811-02:58:56.500|56=STREAMBASE|10=029|8=FIX.4.2|9=58|35=0|34=159|49=OMS|52=20080811-02:59:26.500|56=STREAMBASE|10=028|8=FIX.4.2|9=58|35=0|34=160|49=OMS|52=20080811-02:59:56.500|56=STREAMBASE|10=023|8=FIX.4.2|9=58|35=0|34=161|49=OMS|52=20080811-03:00:26.500|56=STREAMBASE|10=008|8=FIX.4.2|9=58|35=0|34=162|49=OMS|52=20080811-03:00:56.500|56=STREAMBASE|10=012|8=FIX.4.2|9=58|35=0|34=163|49=OMS|52=20080811-03:01:26.500|56=STREAMBASE|10=011|8=FIX.4.2|9=58|35=0|34=164|49=OMS|52=20080811-03:01:56.500|56=STREAMBASE|10=015|8=FIX.4.2|9=58|35=0|34=165|49=OMS|52=20080811-03:02:26.500|56=STREAMBASE|10=014|8=FIX.4.2|9=58|35=0|34=166|49=OMS|52=20080811-03:02:56.500|56=STREAMBASE|10=018|8=FIX.4.2|9=58|35=0|34=167|49=OMS|52=20080811-03:03:26.500|56=STREAMBASE|10=017|8=FIX.4.2|9=58|35=0|34=168|49=OMS|52=20080811-03:03:56.500|56=STREAMBASE|10=021|8=FIX.4.2|9=58|35=0|34=169|49=OMS|52=20080811-03:04:27.484|56=STREAMBASE|10=032|8=FIX.4.2|9=58|35=0|34=170|49=OMS|52=20080811-03:04:57.484|56=STREAMBASE|10=027|8=FIX.4.2|9=58|35=0|34=171|49=OMS|52=20080811-03:05:27.484|56=STREAMBASE|10=026|8=FIX.4.2|9=58|35=0|34=172|49=OMS|52=20080811-03:05:57.484|56=STREAMBASE|10=030|8=FIX.4.2|9=58|35=0|34=173|49=OMS|52=20080811-03:06:27.484|56=STREAMBASE|10=029|8=FIX.4.2|9=58|35=0|34=174|49=OMS|52=20080811-03:06:57.484|56=STREAMBASE|10=033|8=FIX.4.2|9=58|35=0|34=175|49=OMS|52=20080811-03:07:27.484|56=STREAMBASE|10=032|8=FIX.4.2|9=58|35=0|34=176|49=OMS|52=20080811-03:07:57.484|56=STREAMBASE|10=036|8=FIX.4.2|9=58|35=0|34=177|49=OMS|52=20080811-03:08:27.484|56=STREAMBASE|10=035|8=FIX.4.2|9=58|35=0|34=178|49=OMS|52=20080811-03:08:57.484|56=STREAMBASE|10=039|8=FIX.4.2|9=58|35=0|34=179|49=OMS|52=20080811-03:09:27.484|56=STREAMBASE|10=038|8=FIX.4.2|9=58|35=0|34=180|49=OMS|52=20080811-03:09:58.468|56=STREAMBASE|10=036|8=FIX.4.2|9=58|35=0|34=181|49=OMS|52=20080811-03:10:28.468|56=STREAMBASE|10=026|8=FIX.4.2|9=58|35=0|34=182|49=OMS|52=20080811-03:10:58.468|56=STREAMBASE|10=030|8=FIX.4.2|9=58|35=0|34=183|49=OMS|52=20080811-03:11:28.468|56=STREAMBASE|10=029|8=FIX.4.2|9=58|35=0|34=184|49=OMS|52=20080811-03:11:58.468|56=STREAMBASE|10=033|8=FIX.4.2|9=58|35=0|34=185|49=OMS|52=20080811-03:12:28.468|56=STREAMBASE|10=032|8=FIX.4.2|9=58|35=0|34=186|49=OMS|52=20080811-03:12:58.468|56=STREAMBASE|10=036|8=FIX.4.2|9=58|35=0|34=187|49=OMS|52=20080811-03:13:28.468|56=STREAMBASE|10=035|8=FIX.4.2|9=58|35=0|34=188|49=OMS|52=20080811-03:13:58.468|56=STREAMBASE|10=039|8=FIX.4.2|9=58|35=0|34=189|49=OMS|52=20080811-03:14:29.453|56=STREAMBASE|10=033|8=FIX.4.2|9=58|35=0|34=190|49=OMS|52=20080811-03:14:59.453|56=STREAMBASE|10=028|8=FIX.4.2|9=58|35=0|34=191|49=OMS|52=20080811-03:15:29.453|56=STREAMBASE|10=027|8=FIX.4.2|9=58|35=0|34=192|49=OMS|52=20080811-03:15:59.453|56=STREAMBASE|10=031|8=FIX.4.2|9=58|35=0|34=193|49=OMS|52=20080811-03:16:29.453|56=STREAMBASE|10=030|8=FIX.4.2|9=70|35=A|34=194|49=OMS|52=20080811-03:22:42.062|56=STREAMBASE|98=0|108=30|10=055|8=FIX.4.2|9=140|35=D|34=195|49=OMS|52=20080811-03:23:01.687|56=STREAMBASE|11=1218424981611|21=1|38=100|40=2|44=80|54=1|55=IBM|59=0|60=20080811-03:23:01.687|10=144|8=FIX.4.2|9=58|35=0|34=196|49=OMS|52=20080811-03:23:32.015|56=STREAMBASE|10=019|8=FIX.4.2|9=140|35=D|34=197|49=OMS|52=20080811-03:23:38.140|56=STREAMBASE|11=1218425018146|21=1|38=100|40=2|44=80|54=1|55=IBM|59=0|60=20080811-03:23:38.140|10=129|8=FIX.4.2|9=58|35=0|34=198|49=OMS|52=20080811-03:24:09.015|56=STREAMBASE|10=026|8=FIX.4.2|9=58|35=0|34=199|49=OMS|52=20080811-03:24:39.015|56=STREAMBASE|10=030|8=FIX.4.2|9=58|35=0|34=200|49=OMS|52=20080811-03:25:10.000|56=STREAMBASE|10=253|8=FIX.4.2|9=58|35=0|34=201|49=OMS|52=20080811-03:25:40.000|56=STREAMBASE|10=001|8=FIX.4.2|9=58|35=0|34=202|49=OMS|52=20080811-03:26:10.000|56=STREAMBASE|10=000|8=FIX.4.2|9=58|35=0|34=203|49=OMS|52=20080811-03:26:40.000|56=STREAMBASE|10=004|8=FIX.4.2|9=58|35=0|34=204|49=OMS|52=20080811-03:27:10.000|56=STREAMBASE|10=003|8=FIX.4.2|9=58|35=0|34=205|49=OMS|52=20080811-03:27:40.000|56=STREAMBASE|10=007|8=FIX.4.2|9=58|35=0|34=206|49=OMS|52=20080811-03:28:10.000|56=STREAMBASE|10=006|8=FIX.4.2|9=58|35=0|34=207|49=OMS|52=20080811-03:28:40.000|56=STREAMBASE|10=010|8=FIX.4.2|9=58|35=0|34=208|49=OMS|52=20080811-03:29:10.000|56=STREAMBASE|10=009|8=FIX.4.2|9=58|35=0|34=209|49=OMS|52=20080811-03:29:40.000|56=STREAMBASE|10=013|8=FIX.4.2|9=58|35=0|34=210|49=OMS|52=20080811-03:30:10.000|56=STREAMBASE|10=250|8=FIX.4.2|9=58|35=0|34=211|49=OMS|52=20080811-03:30:40.000|56=STREAMBASE|10=254|8=FIX.4.2|9=58|35=0|34=212|49=OMS|52=20080811-03:31:10.000|56=STREAMBASE|10=253|8=FIX.4.2|9=140|35=D|34=213|49=OMS|52=20080811-03:31:26.500|56=STREAMBASE|11=1218425486510|21=1|38=100|40=2|44=10|54=1|55=IBM|59=0|60=20080811-03:31:26.500|10=107|8=FIX.4.2|9=58|35=0|34=214|49=OMS|52=20080811-03:31:56.984|56=STREAMBASE|10=030|8=FIX.4.2|9=58|35=0|34=215|49=OMS|52=20080811-03:32:26.984|56=STREAMBASE|10=029|8=FIX.4.2|9=58|35=0|34=216|49=OMS|52=20080811-03:32:56.984|56=STREAMBASE|10=033|8=FIX.4.2|9=58|35=0|34=217|49=OMS|52=20080811-03:33:26.984|56=STREAMBASE|10=032|8=FIX.4.2|9=58|35=0|34=218|49=OMS|52=20080811-03:33:56.984|56=STREAMBASE|10=036|8=FIX.4.2|9=70|35=A|34=219|49=OMS|52=20080811-03:34:19.921|56=STREAMBASE|98=0|108=30|10=064|8=FIX.4.2|9=140|35=D|34=220|49=OMS|52=20080811-03:34:37.890|56=STREAMBASE|11=1218425677783|21=1|38=100|40=2|44=10|54=1|55=IBM|59=0|60=20080811-03:34:37.890|10=153|8=FIX.4.2|9=58|35=0|34=221|49=OMS|52=20080811-03:35:08.875|56=STREAMBASE|10=028|8=FIX.4.2|9=58|35=0|34=222|49=OMS|52=20080811-03:35:38.875|56=STREAMBASE|10=032|8=FIX.4.2|9=58|35=0|34=223|49=OMS|52=20080811-03:36:08.875|56=STREAMBASE|10=031|8=FIX.4.2|9=58|35=0|34=224|49=OMS|52=20080811-03:36:38.875|56=STREAMBASE|10=035|8=FIX.4.2|9=58|35=0|34=225|49=OMS|52=20080811-03:37:08.875|56=STREAMBASE|10=034|8=FIX.4.2|9=58|35=0|34=226|49=OMS|52=20080811-03:37:38.875|56=STREAMBASE|10=038|8=FIX.4.2|9=58|35=0|34=227|49=OMS|52=20080811-03:38:09.859|56=STREAMBASE|10=040|8=FIX.4.2|9=58|35=0|34=228|49=OMS|52=20080811-03:38:39.859|56=STREAMBASE|10=044|8=FIX.4.2|9=58|35=0|34=229|49=OMS|52=20080811-03:39:09.859|56=STREAMBASE|10=043|8=FIX.4.2|9=58|35=0|34=230|49=OMS|52=20080811-03:39:39.859|56=STREAMBASE|10=038|8=FIX.4.2|9=70|35=A|34=231|49=OMS|52=20080811-03:44:58.671|56=STREAMBASE|98=0|108=30|10=064|8=FIX.4.2|9=140|35=D|34=232|49=OMS|52=20080811-03:45:11.062|56=STREAMBASE|11=1218426310970|21=1|38=100|40=2|44=10|54=1|55=IBM|59=0|60=20080811-03:45:11.062|10=109|8=FIX.4.2|9=58|35=0|34=233|49=OMS|52=20080811-03:45:41.625|56=STREAMBASE|10=022|8=FIX.4.2|9=58|35=0|34=234|49=OMS|52=20080811-03:46:11.625|56=STREAMBASE|10=021|8=FIX.4.2|9=58|35=0|34=235|49=OMS|52=20080811-03:46:41.625|56=STREAMBASE|10=025|8=FIX.4.2|9=140|35=D|34=236|49=OMS|52=20080811-03:46:50.843|56=STREAMBASE|11=1218426410849|21=1|38=100|40=2|44=10|54=1|55=IBM|59=0|60=20080811-03:46:50.843|10=141|8=FIX.4.2|9=58|35=0|34=237|49=OMS|52=20080811-03:47:21.625|56=STREAMBASE|10=026|8=FIX.4.2|9=58|35=0|34=238|49=OMS|52=20080811-03:47:52.609|56=STREAMBASE|10=033|8=FIX.4.2|9=58|35=0|34=239|49=OMS|52=20080811-03:48:22.609|56=STREAMBASE|10=032|8=FIX.4.2|9=58|35=0|34=240|49=OMS|52=20080811-03:48:52.609|56=STREAMBASE|10=027|8=FIX.4.2|9=58|35=0|34=241|49=OMS|52=20080811-03:49:22.609|56=STREAMBASE|10=026|8=FIX.4.2|9=70|35=A|34=242|49=OMS|52=20080811-03:52:52.125|56=STREAMBASE|98=0|108=30|10=053|8=FIX.4.2|9=140|35=D|34=243|49=OMS|52=20080811-03:53:01.953|56=STREAMBASE|11=1218426781877|21=1|38=100|40=2|44=10|54=1|55=IBM|59=0|60=20080811-03:53:01.937|10=145|8=FIX.4.2|9=58|35=0|34=244|49=OMS|52=20080811-03:53:32.062|56=STREAMBASE|10=018|8=FIX.4.2|9=58|35=0|34=245|49=OMS|52=20080811-03:54:02.062|56=STREAMBASE|10=017|8=FIX.4.2|9=58|35=0|34=246|49=OMS|52=20080811-03:54:32.062|56=STREAMBASE|10=021|8=FIX.4.2|9=58|35=0|34=247|49=OMS|52=20080811-03:55:02.062|56=STREAMBASE|10=020|8=FIX.4.2|9=70|35=A|34=248|49=OMS|52=20080811-03:57:44.656|56=STREAMBASE|98=0|108=30|10=074|8=FIX.4.2|9=140|35=D|34=249|49=OMS|52=20080811-03:57:58.484|56=STREAMBASE|11=1218427078408|21=1|38=100|40=2|44=10|54=1|55=IBM|59=0|60=20080811-03:57:58.484|10=169|8=FIX.4.2|9=58|35=0|34=250|49=OMS|52=20080811-03:58:28.609|56=STREAMBASE|10=032|8=FIX.4.2|9=58|35=0|34=251|49=OMS|52=20080811-03:58:58.609|56=STREAMBASE|10=036|8=FIX.4.2|9=58|35=0|34=252|49=OMS|52=20080811-03:59:28.609|56=STREAMBASE|10=035|8=FIX.4.2|9=58|35=0|34=253|49=OMS|52=20080811-03:59:59.593|56=STREAMBASE|10=042|8=FIX.4.2|9=58|35=0|34=254|49=OMS|52=20080811-04:00:29.593|56=STREAMBASE|10=027|8=FIX.4.2|9=58|35=0|34=255|49=OMS|52=20080811-04:00:59.593|56=STREAMBASE|10=031|8=FIX.4.2|9=58|35=0|34=256|49=OMS|52=20080811-04:01:29.593|56=STREAMBASE|10=030|8=FIX.4.2|9=58|35=0|34=257|49=OMS|52=20080811-04:01:59.593|56=STREAMBASE|10=034|8=FIX.4.2|9=58|35=0|34=258|49=OMS|52=20080811-04:02:29.593|56=STREAMBASE|10=033|8=FIX.4.2|9=70|35=A|34=259|49=OMS|52=20080811-04:04:38.453|56=STREAMBASE|98=0|108=30|10=067|8=FIX.4.2|9=140|35=D|34=260|49=OMS|52=20080811-04:04:51.937|56=STREAMBASE|11=1218427491845|21=1|38=100|40=2|44=80|54=1|55=IBM|59=0|60=20080811-04:04:51.937|10=151|8=FIX.4.2|9=58|35=0|34=261|49=OMS|52=20080811-04:05:22.406|56=STREAMBASE|10=016|8=FIX.4.2|9=58|35=0|34=262|49=OMS|52=20080811-04:05:52.406|56=STREAMBASE|10=020|8=FIX.4.2|9=70|35=A|34=263|49=OMS|52=20080811-04:07:38.531|56=STREAMBASE|98=0|108=30|10=062|8=FIX.4.2|9=140|35=D|34=264|49=OMS|52=20080811-04:07:55.171|56=STREAMBASE|11=1218427675095|21=1|38=100|40=2|44=10|54=1|55=IBM|59=0|60=20080811-04:07:55.156|10=146|8=FIX.4.2|9=58|35=0|34=265|49=OMS|52=20080811-04:08:25.484|56=STREAMBASE|10=032|8=FIX.4.2|9=58|35=0|34=266|49=OMS|52=20080811-04:08:55.484|56=STREAMBASE|10=036|8=FIX.4.2|9=58|35=0|34=267|49=OMS|52=20080811-04:09:25.484|56=STREAMBASE|10=035|8=FIX.4.2|9=70|35=A|34=268|49=OMS|52=20080811-04:09:34.171|56=STREAMBASE|98=0|108=30|10=065|8=FIX.4.2|9=140|35=D|34=269|49=OMS|52=20080811-04:09:46.750|56=STREAMBASE|11=1218427786673|21=1|38=100|40=2|44=10|54=1|55=IBM|59=0|60=20080811-04:09:46.734|10=165|8=FIX.4.2|9=70|35=A|34=270|49=OMS|52=20080811-04:20:59.921|56=STREAMBASE|98=0|108=30|10=061|8=FIX.4.2|9=140|35=D|34=271|49=OMS|52=20080811-04:21:10.359|56=STREAMBASE|11=1218428470252|21=1|38=100|40=2|44=10|54=1|55=IBM|59=0|60=20080811-04:21:10.359|10=120|8=FIX.4.2|9=140|35=D|34=272|49=OMS|52=20080811-04:21:18.421|56=STREAMBASE|11=1218428478427|21=1|38=100|40=2|44=10|54=1|55=IBM|59=0|60=20080811-04:21:18.421|10=129|8=FIX.4.2|9=58|35=0|34=273|49=OMS|52=20080811-04:21:48.859|56=STREAMBASE|10=037|8=FIX.4.2|9=58|35=0|34=274|49=OMS|52=20080811-04:22:18.859|56=STREAMBASE|10=036|8=FIX.4.2|9=58|35=0|34=275|49=OMS|52=20080811-04:22:48.859|56=STREAMBASE|10=040|8=FIX.4.2|9=58|35=0|34=276|49=OMS|52=20080811-04:23:18.859|56=STREAMBASE|10=039|8=FIX.4.2|9=58|35=0|34=277|49=OMS|52=20080811-04:23:48.859|56=STREAMBASE|10=043|8=FIX.4.2|9=58|35=0|34=278|49=OMS|52=20080811-04:24:18.859|56=STREAMBASE|10=042|8=FIX.4.2|9=58|35=0|34=279|49=OMS|52=20080811-04:24:48.859|56=STREAMBASE|10=046|8=FIX.4.2|9=70|35=A|34=280|49=OMS|52=20080811-04:26:02.078|56=STREAMBASE|98=0|108=30|10=059|8=FIX.4.2|9=140|35=D|34=281|49=OMS|52=20080811-04:26:17.015|56=STREAMBASE|11=1218428776923|21=1|38=100|40=2|44=10|54=1|55=IBM|59=0|60=20080811-04:26:17.015|10=137|8=FIX.4.2|9=58|35=0|34=282|49=OMS|52=20080811-04:26:47.015|56=STREAMBASE|10=025|8=FIX.4.2|9=58|35=0|34=283|49=OMS|52=20080811-04:27:17.015|56=STREAMBASE|10=024|8=FIX.4.2|9=58|35=0|34=284|49=OMS|52=20080811-04:27:47.015|56=STREAMBASE|10=028|8=FIX.4.2|9=58|35=0|34=285|49=OMS|52=20080811-04:28:17.015|56=STREAMBASE|10=027|8=FIX.4.2|9=58|35=0|34=286|49=OMS|52=20080811-04:28:47.015|56=STREAMBASE|10=031|8=FIX.4.2|9=58|35=0|34=287|49=OMS|52=20080811-04:29:17.015|56=STREAMBASE|10=030|8=FIX.4.2|9=58|35=0|34=288|49=OMS|52=20080811-04:29:47.015|56=STREAMBASE|10=034|8=FIX.4.2|9=140|35=D|34=289|49=OMS|52=20080811-04:30:11.906|56=STREAMBASE|11=1218429011912|21=1|38=100|40=2|44=10|54=1|55=IBM|59=0|60=20080811-04:30:11.906|10=122|8=FIX.4.2|9=58|35=0|34=290|49=OMS|52=20080811-04:30:42.015|56=STREAMBASE|10=014|8=FIX.4.2|9=58|35=0|34=291|49=OMS|52=20080811-04:31:12.031|56=STREAMBASE|10=011|8=FIX.4.2|9=58|35=0|34=292|49=OMS|52=20080811-04:31:42.031|56=STREAMBASE|10=015|8=FIX.4.2|9=58|35=0|34=293|49=OMS|52=20080811-04:32:12.031|56=STREAMBASE|10=014|8=FIX.4.2|9=58|35=0|34=294|49=OMS|52=20080811-04:32:42.031|56=STREAMBASE|10=018|8=FIX.4.2|9=70|35=A|34=295|49=OMS|52=20080811-04:33:04.171|56=STREAMBASE|98=0|108=30|10=059|8=FIX.4.2|9=58|35=0|34=296|49=OMS|52=20080811-04:33:35.046|56=STREAMBASE|10=029|8=FIX.4.2|9=70|35=A|34=297|49=OMS|52=20080811-04:34:15.890|56=STREAMBASE|98=0|108=30|10=072|8=FIX.4.2|9=140|35=D|34=298|49=OMS|52=20080811-04:34:26.828|56=STREAMBASE|11=1218429266736|21=1|38=100|40=2|44=10|54=1|55=IBM|59=0|60=20080811-04:34:26.812|10=157|8=FIX.4.2|9=58|35=0|34=299|49=OMS|52=20080811-04:34:56.859|56=STREAMBASE|10=048|8=FIX.4.2|9=58|35=0|34=300|49=OMS|52=20080811-04:35:26.859|56=STREAMBASE|10=029|8=FIX.4.2|9=58|35=0|34=301|49=OMS|52=20080811-04:35:56.859|56=STREAMBASE|10=033|8=30|10=064|8=FIX.4.2|9=70|35=A|34=302|49=OMS|52=20080811-04:35:57.953|56=STREAMBASE|98=0|108=30|10=066|8=FIX.4.2|9=70|35=A|34=303|49=OMS|52=20080811-04:36:02.953|56=STREAMBASE|98=0|108=30|10=058|8=FIX.4.2|9=70|35=A|34=304|49=OMS|52=20080811-04:36:07.968|56=STREAMBASE|98=0|108=30|10=070|8=FIX.4.2|9=140|35=D|34=305|49=OMS|52=20080811-04:36:31.937|56=STREAMBASE|11=1218429391861|21=1|38=100|40=2|44=10|54=1|55=IMB|59=0|60=20080811-04:36:31.937|10=149|8=FIX.4.2|9=58|35=0|34=306|49=OMS|52=20080811-04:37:01.984|56=STREAMBASE|10=029|8=FIX.4.2|9=58|35=0|34=307|49=OMS|52=20080811-04:37:31.984|56=STREAMBASE|10=033|8=FIX.4.2|9=58|35=0|34=308|49=OMS|52=20080811-04:38:02.000|56=STREAMBASE|10=012|8=FIX.4.2|9=58|35=0|34=309|49=OMS|52=20080811-04:38:32.000|56=STREAMBASE|10=016|8=FIX.4.2|9=58|35=0|34=310|49=OMS|52=20080811-04:39:02.000|56=STREAMBASE|10=006|8=FIX.4.2|9=58|35=0|34=311|49=OMS|52=20080811-04:39:32.000|56=STREAMBASE|10=010|8=FIX.4.2|9=58|35=0|34=312|49=OMS|52=20080811-04:40:02.000|56=STREAMBASE|10=000|8=FIX.4.2|9=58|35=0|34=313|49=OMS|52=20080811-04:40:32.000|56=STREAMBASE|10=004|8=FIX.4.2|9=58|35=0|34=314|49=OMS|52=20080811-04:41:02.000|56=STREAMBASE|10=003|8=FIX.4.2|9=58|35=0|34=315|49=OMS|52=20080811-04:41:32.015|56=STREAMBASE|10=013|8=FIX.4.2|9=58|35=0|34=316|49=OMS|52=20080811-04:42:02.015|56=STREAMBASE|10=012|8=FIX.4.2|9=58|35=0|34=317|49=OMS|52=20080811-04:42:32.015|56=STREAMBASE|10=016|8=FIX.4.2|9=58|35=0|34=318|49=OMS|52=20080811-04:43:02.015|56=STREAMBASE|10=015|8=FIX.4.2|9=70|35=A|34=319|49=OMS|52=20080811-04:43:30.171|56=STREAMBASE|98=0|108=30|10=056|8=FIX.4.2|9=140|35=D|34=320|49=OMS|52=20080811-04:43:39.234|56=STREAMBASE|11=1218429819158|21=1|38=100|40=2|44=10|54=1|55=IBM|59=0|60=20080811-04:43:39.234|10=142|8=FIX.4.2|9=58|35=0|34=321|49=OMS|52=20080811-04:44:10.125|56=STREAMBASE|10=011|8=FIX.4.2|9=58|35=0|34=322|49=OMS|52=20080811-04:44:40.125|56=STREAMBASE|10=015|8=FIX.4.2|9=70|35=A|34=323|49=OMS|52=20080811-04:45:02.515|56=STREAMBASE|98=0|108=30|10=054|8=FIX.4.2|9=140|35=D|34=324|49=OMS|52=20080811-04:45:11.609|56=STREAMBASE|11=1218429911502|21=1|38=100|40=2|44=10|54=1|55=IBM|59=0|60=20080811-04:45:11.593|10=130|8=FIX.4.2|9=58|35=0|34=325|49=OMS|52=20080811-04:45:42.484|56=STREAMBASE|10=029|8=FIX.4.2|9=70|35=A|34=326|49=OMS|52=20080811-04:47:54.625|56=STREAMBASE|98=0|108=30|10=068|8=FIX.4.2|9=58|35=0|34=327|49=OMS|52=20080811-04:48:25.484|56=STREAMBASE|10=035|8=FIX.4.2|9=58|35=0|34=328|49=OMS|52=20080811-04:48:55.578|56=STREAMBASE|10=043|8=FIX.4.2|9=58|35=0|34=329|49=OMS|52=20080811-04:49:25.578|56=STREAMBASE|10=042|8=FIX.4.2|9=58|35=0|34=330|49=OMS|52=20080811-04:49:55.578|56=STREAMBASE|10=037|8=FIX.4.2|9=58|35=0|34=331|49=OMS|52=20080811-04:50:25.578|56=STREAMBASE|10=027|8=FIX.4.2|9=58|35=0|34=332|49=OMS|52=20080811-04:50:55.593|56=STREAMBASE|10=028|8=FIX.4.2|9=58|35=0|34=333|49=OMS|52=20080811-04:51:25.593|56=STREAMBASE|10=027|8=FIX.4.2|9=58|35=0|34=334|49=OMS|52=20080811-04:51:55.593|56=STREAMBASE|10=031|8=FIX.4.2|9=70|35=A|34=335|49=OMS|52=20080811-04:53:29.437|56=STREAMBASE|98=0|108=30|10=068|8=FIX.4.2|9=58|35=0|34=336|49=OMS|52=20080811-04:54:00.078|56=STREAMBASE|10=024|8=FIX.4.2|9=58|35=0|34=337|49=OMS|52=20080811-04:54:30.390|56=STREAMBASE|10=025|8=FIX.4.2|9=58|35=0|34=338|49=OMS|52=20080811-04:55:00.390|56=STREAMBASE|10=024|8=FIX.4.2|9=70|35=A|34=339|49=OMS|52=20080811-04:55:31.421|56=STREAMBASE|98=0|108=30|10=060|8=FIX.4.2|9=140|35=D|34=340|49=OMS|52=20080811-04:55:44.984|56=STREAMBASE|11=1218430544892|21=1|38=100|40=2|44=10|54=1|55=IBM|59=0|60=20080811-04:55:44.984|10=158|8=FIX.4.2|9=140|35=D|34=341|49=OMS|52=20080811-04:56:05.781|56=STREAMBASE|11=1218430565787|21=1|38=100|40=2|44=10|54=1|55=IBM|59=0|60=20080811-04:56:05.781|10=151|8=FIX.4.2|9=140|35=D|34=342|49=OMS|52=20080811-04:56:13.437|56=STREAMBASE|11=1218430573446|21=1|38=100|40=2|44=10|54=1|55=IBM|59=0|60=20080811-04:56:13.437|10=137|8=FIX.4.2|9=140|35=D|34=343|49=OMS|52=20080811-04:56:14.640|56=STREAMBASE|11=1218430574652|21=1|38=100|40=2|44=10|54=1|55=IBM|59=0|60=20080811-04:56:14.640|10=132|8=FIX.4.2|9=140|35=D|34=344|49=OMS|52=20080811-04:56:15.437|56=STREAMBASE|11=1218430575452|21=1|38=100|40=2|44=10|54=1|55=IBM|59=0|60=20080811-04:56:15.437|10=142|8=FIX.4.2|9=140|35=D|34=345|49=OMS|52=20080811-04:56:16.187|56=STREAMBASE|11=1218430576205|21=1|38=100|40=2|44=10|54=1|55=IBM|59=0|60=20080811-04:56:16.187|10=146|8=FIX.4.2|9=140|35=D|34=346|49=OMS|52=20080811-04:56:16.968|56=STREAMBASE|11=1218430576989|21=1|38=100|40=2|44=10|54=1|55=IBM|59=0|60=20080811-04:56:16.968|10=180|8=FIX.4.2|9=140|35=D|34=347|49=OMS|52=20080811-04:56:17.734|56=STREAMBASE|11=1218430577758|21=1|38=100|40=2|44=10|54=1|55=IBM|59=0|60=20080811-04:56:17.734|10=160|8=FIX.4.2|9=140|35=D|34=348|49=OMS|52=20080811-04:56:18.500|56=STREAMBASE|11=1218430578527|21=1|38=100|40=2|44=10|54=1|55=IBM|59=0|60=20080811-04:56:18.500|10=140|8=FIX.4.2|9=140|35=D|34=349|49=OMS|52=20080811-04:56:19.187|56=STREAMBASE|11=1218430579217|21=1|38=100|40=2|44=10|54=1|55=IBM|59=0|60=20080811-04:56:19.187|10=162|8=FIX.4.2|9=140|35=D|34=350|49=OMS|52=20080811-04:56:19.968|56=STREAMBASE|11=1218430580001|21=1|38=100|40=2|44=10|54=1|55=IBM|59=0|60=20080811-04:56:19.968|10=151|8=FIX.4.2|9=140|35=D|34=351|49=OMS|52=20080811-04:56:20.687|56=STREAMBASE|11=1218430580723|21=1|38=100|40=2|44=10|54=1|55=IBM|59=0|60=20080811-04:56:20.687|10=143|8=FIX.4.2|9=140|35=D|34=352|49=OMS|52=20080811-04:56:21.406|56=STREAMBASE|11=1218430581445|21=1|38=100|40=2|44=10|54=1|55=IBM|59=0|60=20080811-04:56:21.406|10=126|8=FIX.4.2|9=140|35=D|34=353|49=OMS|52=20080811-04:56:22.890|56=STREAMBASE|11=1218430582932|21=1|38=100|40=2|44=10|54=1|55=IBM|59=0|60=20080811-04:56:22.890|10=145|8=FIX.4.2|9=140|35=D|34=354|49=OMS|52=20080811-04:56:23.609|56=STREAMBASE|11=1218430583654|21=1|38=100|40=2|44=10|54=1|55=IBM|59=0|60=20080811-04:56:23.609|10=146|8=FIX.4.2|9=140|35=D|34=355|49=OMS|52=20080811-04:56:24.250|56=STREAMBASE|11=1218430584298|21=1|38=100|40=2|44=10|54=1|55=IBM|59=0|60=20080811-04:56:24.250|10=138|8=FIX.4.2|9=140|35=D|34=356|49=OMS|52=20080811-04:56:24.953|56=STREAMBASE|11=1218430585004|21=1|38=100|40=2|44=10|54=1|55=IBM|59=0|60=20080811-04:56:24.953|10=145|8=FIX.4.2|9=140|35=D|34=357|49=OMS|52=20080811-04:56:25.531|56=STREAMBASE|11=1218430585585|21=1|38=100|40=2|44=10|54=1|55=IBM|59=0|60=20080811-04:56:25.531|10=146|8=FIX.4.2|9=140|35=D|34=358|49=OMS|52=20080811-04:56:26.109|56=STREAMBASE|11=1218430586166|21=1|38=100|40=2|44=10|54=1|55=IBM|59=0|60=20080811-04:56:26.109|10=147|8=FIX.4.2|9=140|35=D|34=359|49=OMS|52=20080811-04:56:26.781|56=STREAMBASE|11=1218430586841|21=1|38=100|40=2|44=10|54=1|55=IBM|59=0|60=20080811-04:56:26.781|10=160|8=FIX.4.2|9=140|35=D|34=360|49=OMS|52=20080811-04:56:27.500|56=STREAMBASE|11=1218430587563|21=1|38=100|40=2|44=10|54=1|55=IBM|59=0|60=20080811-04:56:27.500|10=134|8=FIX.4.2|9=140|35=D|34=361|49=OMS|52=20080811-04:56:28.140|56=STREAMBASE|11=1218430588206|21=1|38=100|40=2|44=10|54=1|55=IBM|59=0|60=20080811-04:56:28.140|10=132|8=FIX.4.2|9=140|35=D|34=362|49=OMS|52=20080811-04:56:28.828|56=STREAMBASE|11=1218430588881|21=1|38=100|40=2|44=10|54=1|55=IBM|59=0|60=20080811-04:56:28.812|10=161|8=FIX.4.2|9=140|35=D|34=363|49=OMS|52=20080811-04:56:29.468|56=STREAMBASE|11=1218430589540|21=1|38=100|40=2|44=10|54=1|55=IBM|59=0|60=20080811-04:56:29.468|10=164|8=FIX.4.2|9=140|35=D|34=364|49=OMS|52=20080811-04:56:30.093|56=STREAMBASE|11=1218430590168|21=1|38=100|40=2|44=10|54=1|55=IBM|59=0|60=20080811-04:56:30.093|10=135|8=FIX.4.2|9=140|35=D|34=365|49=OMS|52=20080811-04:56:30.750|56=STREAMBASE|11=1218430590828|21=1|38=100|40=2|44=10|54=1|55=IBM|59=0|60=20080811-04:56:30.750|10=139|8=FIX.4.2|9=140|35=D|34=366|49=OMS|52=20080811-04:56:31.406|56=STREAMBASE|11=1218430591487|21=1|38=100|40=2|44=10|54=1|55=IBM|59=0|60=20080811-04:56:31.406|10=140|8=FIX.4.2|9=140|35=D|34=367|49=OMS|52=20080811-04:56:32.125|56=STREAMBASE|11=1218430592209|21=1|38=100|40=2|44=10|54=1|55=IBM|59=0|60=20080811-04:56:32.125|10=132|8=FIX.4.2|9=140|35=D|34=368|49=OMS|52=20080811-04:56:32.812|56=STREAMBASE|11=1218430592899|21=1|38=100|40=2|44=10|54=1|55=IBM|59=0|60=20080811-04:56:32.812|10=154|8=FIX.4.2|9=140|35=D|34=369|49=OMS|52=20080811-04:56:33.500|56=STREAMBASE|11=1218430593590|21=1|38=100|40=2|44=10|54=1|55=IBM|59=0|60=20080811-04:56:33.500|10=134|8=FIX.4.2|9=140|35=D|34=370|49=OMS|52=20080811-04:56:34.203|56=STREAMBASE|11=1218430594296|21=1|38=100|40=2|44=10|54=1|55=IBM|59=0|60=20080811-04:56:34.203|10=132|8=FIX.4.2|9=58|35=0|34=371|49=OMS|52=20080811-04:57:04.437|56=STREAMBASE|10=029|8=FIX.4.2|9=58|35=0|34=372|49=OMS|52=20080811-04:57:34.437|56=STREAMBASE|10=033|8=FIX.4.2|9=70|35=A|34=373|49=OMS|52=20080811-04:58:00.468|56=STREAMBASE|98=0|108=30|10=068|8=FIX.4.2|9=140|35=D|34=374|49=OMS|52=20080811-04:58:15.109|56=STREAMBASE|11=1218430695048|21=1|38=100|40=2|44=19|54=1|55=IBM|59=0|60=20080811-04:58:15.109|10=154|8=FIX.4.2|9=58|35=0|34=375|49=OMS|52=20080811-04:58:45.421|56=STREAMBASE|10=032|8=FIX.4.2|9=140|35=D|34=376|49=OMS|52=20080811-04:58:49.656|56=STREAMBASE|11=1218430729645|21=1|38=100|40=2|44=19|54=1|55=IBM|59=0|60=20080811-04:58:49.656|10=185|8=FIX.4.2|9=140|35=D|34=377|49=OMS|52=20080811-04:58:52.906|56=STREAMBASE|11=1218430732914|21=1|38=100|40=2|44=19|54=1|55=IBM|59=0|60=20080811-04:58:52.906|10=163|8=FIX.4.2|9=140|35=D|34=378|49=OMS|52=20080811-04:59:08.875|56=STREAMBASE|11=1218430748886|21=1|38=100|40=2|44=19|54=1|55=IBM|59=0|60=20080811-04:59:08.875|10=193|8=FIX.4.2|9=140|35=D|34=379|49=OMS|52=20080811-04:59:11.015|56=STREAMBASE|11=1218430751029|21=1|38=100|40=2|44=19|54=1|55=IBM|59=0|60=20080811-04:59:11.015|10=137|8=FIX.4.2|9=140|35=D|34=380|49=OMS|52=20080811-04:59:23.000|56=STREAMBASE|11=1218430763017|21=1|38=100|40=2|44=19|54=1|55=IBM|59=0|60=20080811-04:59:23.000|10=123|8=FIX.4.2|9=70|35=A|34=381|49=OMS|52=20080811-05:19:08.125|56=STREAMBASE|98=0|108=30|10=063|8=FIX.4.2|9=140|35=D|34=382|49=OMS|52=20080811-05:19:18.562|56=STREAMBASE|11=1218431958455|21=1|38=100|40=2|44=10|54=1|55=IBM|59=0|60=20080811-05:19:18.531|10=153|8=FIX.4.2|9=140|35=D|34=383|49=OMS|52=20080811-05:19:25.546|56=STREAMBASE|11=1218431965551|21=1|38=100|40=2|44=10|54=1|55=IBM|59=0|60=20080811-05:19:25.546|10=153|8=FIX.4.2|9=140|35=D|34=384|49=OMS|52=20080811-05:19:37.421|56=STREAMBASE|11=1218431977429|21=1|38=100|40=2|44=10|54=1|55=IBM|59=0|60=20080811-05:19:37.421|10=151|8=FIX.4.2|9=58|35=0|34=385|49=OMS|52=20080811-05:20:08.078|56=STREAMBASE|10=030|8=FIX.4.2|9=58|35=0|34=386|49=OMS|52=20080811-05:20:38.093|56=STREAMBASE|10=031|8=FIX.4.2|9=58|35=0|34=387|49=OMS|52=20080811-05:21:08.093|56=STREAMBASE|10=030|8=FIX.4.2|9=58|35=0|34=388|49=OMS|52=20080811-05:21:38.109|56=STREAMBASE|10=032|8=FIX.4.2|9=70|35=A|34=389|49=OMS|52=20080811-05:23:25.671|56=STREAMBASE|98=0|108=30|10=071|8=FIX.4.2|9=140|35=D|34=390|49=OMS|52=20080811-05:23:37.812|56=STREAMBASE|11=1218432217736|21=1|38=100|40=2|44=10|54=1|55=IBM|59=0|60=20080811-05:23:37.796|10=146|8=FIX.4.2|9=58|35=0|34=391|49=OMS|52=20080811-05:24:08.656|56=STREAMBASE|10=033|8=FIX.4.2|9=140|35=D|34=392|49=OMS|52=20080811-05:24:13.906|56=STREAMBASE|11=1218432253912|21=1|38=100|40=2|44=10|54=1|55=IBM|59=0|60=20080811-05:24:13.906|10=131|8=FIX.4.2|9=140|35=D|34=393|49=OMS|52=20080811-05:24:22.656|56=STREAMBASE|11=1218432262650|21=1|38=100|40=2|44=10|54=1|55=IBM|59=0|60=20080811-05:24:22.640|10=128|8=FIX.4.2|9=58|35=0|34=394|49=OMS|52=20080811-05:24:52.656|56=STREAMBASE|10=035|8=FIX.4.2|9=58|35=0|34=395|49=OMS|52=20080811-05:25:22.656|56=STREAMBASE|10=034|8=FIX.4.2|9=58|35=0|34=396|49=OMS|52=20080811-05:25:52.656|56=STREAMBASE|10=038|8=FIX.4.2|9=58|35=0|34=397|49=OMS|52=20080811-05:26:22.671|56=STREAMBASE|10=034|8=FIX.4.2|9=58|35=0|34=398|49=OMS|52=20080811-05:26:52.671|56=STREAMBASE|10=038|8=FIX.4.2|9=58|35=0|34=399|49=OMS|52=20080811-05:27:22.671|56=STREAMBASE|10=037|8=FIX.4.2|9=58|35=0|34=400|49=OMS|52=20080811-05:27:52.671|56=STREAMBASE|10=023|8=FIX.4.2|9=58|35=0|34=401|49=OMS|52=20080811-05:28:22.671|56=STREAMBASE|10=022|8=FIX.4.2|9=58|35=0|34=402|49=OMS|52=20080811-05:28:52.687|56=STREAMBASE|10=033|8=FIX.4.2|9=70|35=A|34=403|49=OMS|52=20080811-05:29:04.609|56=STREAMBASE|98=0|108=30|10=062|8=FIX.4.2|9=140|35=D|34=404|49=OMS|52=20080811-05:29:20.015|56=STREAMBASE|11=1218432559939|21=1|38=100|40=2|44=10|54=1|55=IBM|59=0|60=20080811-05:29:20.000|10=125|8=FIX.4.2|9=58|35=0|34=405|49=OMS|52=20080811-05:29:50.593|56=STREAMBASE|10=031|8=FIX.4.2|9=58|35=0|34=406|49=OMS|52=20080811-05:30:20.593|56=STREAMBASE|10=021|8=FIX.4.2|9=58|35=0|34=407|49=OMS|52=20080811-05:30:50.593|56=STREAMBASE|10=025|8=FIX.4.2|9=58|35=0|34=408|49=OMS|52=20080811-05:31:20.593|56=STREAMBASE|10=024|8=FIX.4.2|9=58|35=0|34=409|49=OMS|52=20080811-05:31:50.593|56=STREAMBASE|10=028|8=FIX.4.2|9=58|35=0|34=410|49=OMS|52=20080811-05:32:20.593|56=STREAMBASE|10=018|8=FIX.4.2|9=70|35=A|34=411|49=OMS|52=20080811-05:32:31.796|56=STREAMBASE|98=0|108=30|10=062|8=FIX.4.2|9=139|35=D|34=412|49=OMS|52=20080811-05:32:48.140|56=STREAMBASE|11=1218432768064|21=1|38=10|40=2|44=10|54=1|55=IBM|59=0|60=20080811-05:32:48.125|10=090|8=FIX.4.2|9=58|35=0|34=413|49=OMS|52=20080811-05:33:18.750|56=STREAMBASE|10=024|8=FIX.4.2|9=58|35=0|34=414|49=OMS|52=20080811-05:33:48.781|56=STREAMBASE|10=032|8=FIX.4.2|9=58|35=0|34=415|49=OMS|52=20080811-05:34:18.781|56=STREAMBASE|10=031|8=FIX.4.2|9=70|35=A|34=416|49=OMS|52=20080811-05:35:07.500|56=STREAMBASE|98=0|108=30|10=056|8=FIX.4.2|9=140|35=D|34=417|49=OMS|52=20080811-05:35:19.343|56=STREAMBASE|11=1218432919252|21=1|38=100|40=2|44=10|54=1|55=IBM|59=0|60=20080811-05:35:19.343|10=141|8=FIX.4.2|9=58|35=0|34=418|49=OMS|52=20080811-05:35:49.484|56=STREAMBASE|10=039|8=FIX.4.2|9=58|35=0|34=419|49=OMS|52=20080811-05:36:19.500|56=STREAMBASE|10=027|8=FIX.4.2|9=58|35=0|34=420|49=OMS|52=20080811-05:36:49.500|56=STREAMBASE|10=022|8=FIX.4.2|9=58|35=0|34=421|49=OMS|52=20080811-05:37:19.500|56=STREAMBASE|10=021|8=FIX.4.2|9=58|35=0|34=422|49=OMS|52=20080811-05:37:49.500|56=STREAMBASE|10=025|8=FIX.4.2|9=58|35=0|34=423|49=OMS|52=20080811-05:38:19.500|56=STREAMBASE|10=024|8=FIX.4.2|9=58|35=0|34=424|49=OMS|52=20080811-05:38:49.515|56=STREAMBASE|10=034|8=FIX.4.2|9=58|35=0|34=425|49=OMS|52=20080811-05:39:19.515|56=STREAMBASE|10=033|8=FIX.4.2|9=58|35=0|34=426|49=OMS|52=20080811-05:39:49.515|56=STREAMBASE|10=037|8=FIX.4.2|9=58|35=0|34=427|49=OMS|52=20080811-05:40:19.515|56=STREAMBASE|10=027|8=FIX.4.2|9=58|35=0|34=428|49=OMS|52=20080811-05:40:49.515|56=STREAMBASE|10=031|8=FIX.4.2|9=70|35=A|34=429|49=OMS|52=20080811-05:41:27.484|56=STREAMBASE|98=0|108=30|10=070|8=FIX.4.2|9=140|35=D|34=430|49=OMS|52=20080811-05:41:37.468|56=STREAMBASE|11=1218433297377|21=1|38=100|40=2|44=10|54=1|55=IBM|59=0|60=20080811-05:41:37.468|10=154|8=FIX.4.2|9=70|35=A|34=431|49=OMS|52=20080811-05:49:09.718|56=STREAMBASE|98=0|108=30|10=071|8=FIX.4.2|9=140|35=D|34=432|49=OMS|52=20080811-05:49:23.656|56=STREAMBASE|11=1218433763564|21=1|38=199|40=2|44=10|54=1|55=IBM|59=0|60=20080811-05:49:23.656|10=174|8=FIX.4.2|9=58|35=0|34=433|49=OMS|52=20080811-05:49:53.687|56=STREAMBASE|10=041|8=FIX.4.2|9=58|35=0|34=434|49=OMS|52=20080811-05:50:23.687|56=STREAMBASE|10=031|8=FIX.4.2|9=58|35=0|34=435|49=OMS|52=20080811-05:50:53.687|56=STREAMBASE|10=035|8=FIX.4.2|9=140|35=D|34=436|49=OMS|52=20080811-05:51:16.250|56=STREAMBASE|11=1218433876256|21=1|38=199|40=2|44=10|54=1|55=IBM|59=0|60=20080811-05:51:16.250|10=151|8=FIX.4.2|9=140|35=D|34=437|49=OMS|52=20080811-05:51:21.859|56=STREAMBASE|11=1218433881869|21=1|38=199|40=2|44=10|54=1|55=IBM|59=0|60=20080811-05:51:21.859|10=180|8=FIX.4.2|9=140|35=D|34=438|49=OMS|52=20080811-05:51:22.546|56=STREAMBASE|11=1218433882560|21=1|38=199|40=2|44=10|54=1|55=IBM|59=0|60=20080811-05:51:22.546|10=158|8=FIX.4.2|9=140|35=D|34=439|49=OMS|52=20080811-05:51:23.046|56=STREAMBASE|11=1218433883064|21=1|38=199|40=2|44=10|54=1|55=IBM|59=0|60=20080811-05:51:23.046|10=151|8=FIX.4.2|9=140|35=D|34=440|49=OMS|52=20080811-05:51:23.343|56=STREAMBASE|11=1218433883365|21=1|38=199|40=2|44=10|54=1|55=IBM|59=0|60=20080811-05:51:23.343|10=147|8=FIX.4.2|9=140|35=D|34=441|49=OMS|52=20080811-05:51:23.578|56=STREAMBASE|11=1218433883604|21=1|38=199|40=2|44=10|54=1|55=IBM|59=0|60=20080811-05:51:23.578|10=164|8=FIX.4.2|9=140|35=D|34=442|49=OMS|52=20080811-05:51:23.843|56=STREAMBASE|11=1218433883873|21=1|38=199|40=2|44=10|54=1|55=IBM|59=0|60=20080811-05:51:23.843|10=163|8=FIX.4.2|9=140|35=D|34=443|49=OMS|52=20080811-05:51:24.156|56=STREAMBASE|11=1218433884190|21=1|38=199|40=2|44=10|54=1|55=IBM|59=0|60=20080811-05:51:24.156|10=153|8=FIX.4.2|9=140|35=D|34=444|49=OMS|52=20080811-05:51:28.328|56=STREAMBASE|11=1218433888366|21=1|38=199|40=2|44=10|54=1|55=IBM|59=0|60=20080811-05:51:28.328|10=173|8=FIX.4.2|9=140|35=D|34=445|49=OMS|52=20080811-05:51:28.859|56=STREAMBASE|11=1218433888901|21=1|38=199|40=2|44=10|54=1|55=IBM|59=0|60=20080811-05:51:28.859|10=187|8=FIX.4.2|9=140|35=D|34=446|49=OMS|52=20080811-05:51:29.375|56=STREAMBASE|11=1218433889421|21=1|38=199|40=2|44=10|54=1|55=IBM|59=0|60=20080811-05:51:29.375|10=174|8=FIX.4.2|9=140|35=D|34=447|49=OMS|52=20080811-05:51:29.828|56=STREAMBASE|11=1218433889878|21=1|38=199|40=2|44=10|54=1|55=IBM|59=0|60=20080811-05:51:29.828|10=197|8=FIX.4.2|9=140|35=D|34=448|49=OMS|52=20080811-05:51:30.656|56=STREAMBASE|11=1218433890710|21=1|38=199|40=2|44=10|54=1|55=IBM|59=0|60=20080811-05:51:30.656|10=157|8=FIX.4.2|9=140|35=D|34=449|49=OMS|52=20080811-05:51:30.906|56=STREAMBASE|11=1218433890964|21=1|38=199|40=2|44=10|54=1|55=IBM|59=0|60=20080811-05:51:30.906|10=165|8=FIX.4.2|9=140|35=D|34=450|49=OMS|52=20080811-05:51:31.156|56=STREAMBASE|11=1218433891218|21=1|38=199|40=2|44=10|54=1|55=IBM|59=0|60=20080811-05:51:31.156|10=146|8=FIX.4.2|9=140|35=D|34=451|49=OMS|52=20080811-05:51:31.500|56=STREAMBASE|11=1218433891566|21=1|38=199|40=2|44=10|54=1|55=IBM|59=0|60=20080811-05:51:31.500|10=139|8=FIX.4.2|9=140|35=D|34=452|49=OMS|52=20080811-05:51:32.140|56=STREAMBASE|11=1218433892210|21=1|38=199|40=2|44=10|54=1|55=IBM|59=0|60=20080811-05:51:32.140|10=129|8=FIX.4.2|9=141|35=D|34=453|49=OMS|52=20080811-05:51:45.890|56=STREAMBASE|11=1218433905964|21=1|38=199|40=2|44=210|54=1|55=IBM|59=0|60=20080811-05:51:45.890|10=224|8=FIX.4.2|9=141|35=D|34=454|49=OMS|52=20080811-05:51:53.500|56=STREAMBASE|11=1218433913578|21=1|38=199|40=2|44=210|54=1|55=IBM|59=0|60=20080811-05:51:53.500|10=199|8=FIX.4.2|9=141|35=D|34=455|49=OMS|52=20080811-05:51:54.140|56=STREAMBASE|11=1218433914222|21=1|38=199|40=2|44=210|54=1|55=IBM|59=0|60=20080811-05:51:54.140|10=189|8=FIX.4.2|9=141|35=D|34=456|49=OMS|52=20080811-05:51:54.687|56=STREAMBASE|11=1218433914773|21=1|38=199|40=2|44=210|54=1|55=IBM|59=0|60=20080811-05:51:54.687|10=233|8=FIX.4.2|9=141|35=D|34=457|49=OMS|52=20080811-05:51:54.984|56=STREAMBASE|11=1218433915074|21=1|38=199|40=2|44=210|54=1|55=IBM|59=0|60=20080811-05:51:54.984|10=229|8=FIX.4.2|9=141|35=D|34=458|49=OMS|52=20080811-05:51:55.187|56=STREAMBASE|11=1218433915281|21=1|38=199|40=2|44=210|54=1|55=IBM|59=0|60=20080811-05:51:55.187|10=222|8=FIX.4.2|9=141|35=D|34=459|49=OMS|52=20080811-05:51:55.375|56=STREAMBASE|11=1218433915473|21=1|38=199|40=2|44=210|54=1|55=IBM|59=0|60=20080811-05:51:55.375|10=224|8=FIX.4.2|9=141|35=D|34=460|49=OMS|52=20080811-05:51:55.578|56=STREAMBASE|11=1218433915680|21=1|38=199|40=2|44=210|54=1|55=IBM|59=0|60=20080811-05:51:55.578|10=226|8=FIX.4.2|9=141|35=D|34=461|49=OMS|52=20080811-05:51:57.281|56=STREAMBASE|11=1218433917387|21=1|38=199|40=2|44=210|54=1|55=IBM|59=0|60=20080811-05:51:57.281|10=219|8=FIX.4.2|9=141|35=D|34=462|49=OMS|52=20080811-05:52:01.781|56=STREAMBASE|11=1218433921891|21=1|38=199|40=2|44=210|54=1|55=IBM|59=0|60=20080811-05:52:01.781|10=205|8=FIX.4.2|9=141|35=D|34=463|49=OMS|52=20080811-05:52:09.031|56=STREAMBASE|11=1218433929145|21=1|38=199|40=2|44=210|54=1|55=IBM|59=0|60=20080811-05:52:09.031|10=198|8=FIX.4.2|9=141|35=D|34=464|49=OMS|52=20080811-05:52:18.078|56=STREAMBASE|11=1218433938196|21=1|38=199|40=2|44=210|54=1|55=IBM|59=0|60=20080811-05:52:18.078|10=227|8=FIX.4.2|9=141|35=D|34=465|49=OMS|52=20080811-05:52:21.015|56=STREAMBASE|11=1218433941137|21=1|38=199|40=2|44=210|54=1|55=IBM|59=0|60=20080811-05:52:21.015|10=187|8=FIX.4.2|9=141|35=D|34=466|49=OMS|52=20080811-05:52:21.671|56=STREAMBASE|11=1218433941782|21=1|38=199|40=2|44=210|54=1|55=IBM|59=0|60=20080811-05:52:21.656|10=213|8=FIX.4.2|9=141|35=D|34=467|49=OMS|52=20080811-05:52:22.218|56=STREAMBASE|11=1218433942348|21=1|38=199|40=2|44=210|54=1|55=IBM|59=0|60=20080811-05:52:22.218|10=206|8=FIX.4.2|9=70|35=A|34=468|49=OMS|52=20080811-06:11:47.296|56=STREAMBASE|98=0|108=30|10=074|8=FIX.4.2|9=140|35=D|34=469|49=OMS|52=20080811-06:11:58.125|56=STREAMBASE|11=1218435118048|21=1|38=100|40=2|44=10|54=1|55=IBM|59=0|60=20080811-06:11:58.109|10=139|8=FIX.4.2|9=58|35=0|34=470|49=OMS|52=20080811-06:12:28.234|56=STREAMBASE|10=023|8=FIX.4.2|9=58|35=0|34=471|49=OMS|52=20080811-06:12:58.234|56=STREAMBASE|10=027|8=FIX.4.2|9=58|35=0|34=472|49=OMS|52=20080811-06:13:28.234|56=STREAMBASE|10=026|8=FIX.4.2|9=58|35=0|34=473|49=OMS|52=20080811-06:13:58.234|56=STREAMBASE|10=030|8=FIX.4.2|9=58|35=0|34=474|49=OMS|52=20080811-06:14:28.234|56=STREAMBASE|10=029|8=FIX.4.2|9=58|35=0|34=475|49=OMS|52=20080811-06:14:58.234|56=STREAMBASE|10=033|8=FIX.4.2|9=58|35=0|34=476|49=OMS|52=20080811-06:15:28.234|56=STREAMBASE|10=032|8=FIX.4.2|9=58|35=0|34=477|49=OMS|52=20080811-06:15:58.234|56=STREAMBASE|10=036|8=FIX.4.2|9=58|35=0|34=478|49=OMS|52=20080811-06:16:28.234|56=STREAMBASE|10=035|8=FIX.4.2|9=70|35=A|34=479|49=OMS|52=20080811-06:21:48.093|56=STREAMBASE|98=0|108=30|10=073|8=FIX.4.2|9=140|35=D|34=480|49=OMS|52=20080811-06:22:01.171|56=STREAMBASE|11=1218435721095|21=1|38=100|40=2|44=10|54=1|55=IBM|59=0|60=20080811-06:22:01.171|10=114|8=FIX.4.2|9=58|35=0|34=481|49=OMS|52=20080811-06:22:32.031|56=STREAMBASE|10=016|8=FIX.4.2|9=140|35=D|34=482|49=OMS|52=20080811-06:22:40.187|56=STREAMBASE|11=1218435760193|21=1|38=100|40=2|44=10|54=1|55=IBM|59=0|60=20080811-06:22:40.187|10=138|8=FIX.4.2|9=70|35=A|34=483|49=OMS|52=20080811-06:26:35.890|56=STREAMBASE|98=0|108=30|10=074|8=FIX.4.2|9=140|35=D|34=484|49=OMS|52=20080811-06:26:49.390|56=STREAMBASE|11=1218436009314|21=1|38=100|40=2|44=10|54=1|55=ibm|59=0|60=20080811-06:26:49.375|10=249|8=FIX.4.2|9=58|35=0|34=485|49=OMS|52=20080811-06:27:19.859|56=STREAMBASE|10=048|8=FIX.4.2|9=58|35=0|34=486|49=OMS|52=20080811-06:27:49.859|56=STREAMBASE|10=052|8=FIX.4.2|9=140|35=D|34=487|49=OMS|52=20080811-06:28:18.734|56=STREAMBASE|11=1218436098740|21=1|38=100|40=2|44=10|54=1|55=ibm|59=0|60=20080811-06:28:18.734|10=004|8=FIX.4.2|9=58|35=0|34=488|49=OMS|52=20080811-06:28:48.859|56=STREAMBASE|10=054|8=FIX.4.2|9=58|35=0|34=489|49=OMS|52=20080811-06:29:18.859|56=STREAMBASE|10=053|8=FIX.4.2|9=140|35=D|34=490|49=OMS|52=20080811-06:29:33.046|56=STREAMBASE|11=1218436173056|21=1|38=100|40=2|44=10|54=1|55=ibm|59=0|60=20080811-06:29:33.046|10=236|8=FIX.4.2|9=140|35=D|34=491|49=OMS|52=20080811-06:29:34.187|56=STREAMBASE|11=1218436174201|21=1|38=100|40=2|44=10|54=1|55=ibm|59=0|60=20080811-06:29:34.187|10=244|8=FIX.4.2|9=140|35=D|34=492|49=OMS|52=20080811-06:29:34.781|56=STREAMBASE|11=1218436174799|21=1|38=100|40=2|44=10|54=1|55=ibm|59=0|60=20080811-06:29:34.781|10=011|8=FIX.4.2|9=70|35=A|34=493|49=OMS|52=20080811-07:06:48.265|56=STREAMBASE|98=0|108=30|10=074|8=FIX.4.2|9=58|35=5|34=494|49=OMS|52=20080811-07:06:48.437|56=STREAMBASE|10=045|8=FIX.4.2|9=70|35=A|34=495|49=OMS|52=20080811-07:06:53.156|56=STREAMBASE|98=0|108=30|10=071|8=FIX.4.2|9=70|35=A|34=496|49=OMS|52=20080811-07:06:58.156|56=STREAMBASE|98=0|108=30|10=077|8=FIX.4.2|9=58|35=5|34=497|49=OMS|52=20080811-07:06:58.156|56=STREAMBASE|10=047|8=FIX.4.2|9=70|35=A|34=498|49=OMS|52=20080811-07:07:03.156|56=STREAMBASE|98=0|108=30|10=070|8=FIX.4.2|9=70|35=A|34=499|49=OMS|52=20080811-07:07:08.156|56=STREAMBASE|98=0|108=30|10=076|8=FIX.4.2|9=58|35=5|34=500|49=OMS|52=20080811-07:07:08.156|56=STREAMBASE|10=028|8=FIX.4.2|9=70|35=A|34=501|49=OMS|52=20080811-07:07:13.156|56=STREAMBASE|98=0|108=30|10=056|8=FIX.4.2|9=70|35=A|34=502|49=OMS|52=20080811-07:07:18.171|56=STREAMBASE|98=0|108=30|10=059|8=FIX.4.2|9=58|35=5|34=503|49=OMS|52=20080811-07:07:18.171|56=STREAMBASE|10=029|8=FIX.4.2|9=70|35=A|34=504|49=OMS|52=20080811-07:10:34.046|56=STREAMBASE|98=0|108=30|10=054|8=FIX.4.2|9=69|35=2|34=505|49=OMS|52=20080811-07:10:34.156|56=STREAMBASE|7=384|16=0|10=002|8=FIX.4.2|9=141|35=D|34=506|49=OMS|52=20080811-07:10:46.390|56=STREAMBASE|11=1218438646220|21=1|38=100|40=2|44=100|54=1|55=ibm|59=0|60=20080811-07:10:46.375|10=024|8=FIX.4.2|9=58|35=0|34=507|49=OMS|52=20080811-07:11:17.015|56=STREAMBASE|10=019|8=FIX.4.2|9=58|35=0|34=508|49=OMS|52=20080811-07:11:47.015|56=STREAMBASE|10=023|8=FIX.4.2|9=58|35=0|34=509|49=OMS|52=20080811-07:12:17.015|56=STREAMBASE|10=022|8=FIX.4.2|9=58|35=0|34=510|49=OMS|52=20080811-07:12:47.015|56=STREAMBASE|10=017|8=FIX.4.2|9=58|35=0|34=511|49=OMS|52=20080811-07:13:17.015|56=STREAMBASE|10=016|8=FIX.4.2|9=58|35=0|34=512|49=OMS|52=20080811-07:13:47.015|56=STREAMBASE|10=020|8=FIX.4.2|9=58|35=0|34=513|49=OMS|52=20080811-07:14:17.031|56=STREAMBASE|10=017|8=FIX.4.2|9=58|35=0|34=514|49=OMS|52=20080811-07:14:47.031|56=STREAMBASE|10=021|8=FIX.4.2|9=58|35=0|34=515|49=OMS|52=20080811-07:15:17.031|56=STREAMBASE|10=020|8=FIX.4.2|9=58|35=0|34=516|49=OMS|52=20080811-07:15:47.031|56=STREAMBASE|10=024|8=FIX.4.2|9=58|35=0|34=517|49=OMS|52=20080811-07:16:17.031|56=STREAMBASE|10=023|8=FIX.4.2|9=141|35=D|34=518|49=OMS|52=20080811-07:16:17.484|56=STREAMBASE|11=1218438977490|21=1|38=100|40=2|44=100|54=1|55=ibm|59=0|60=20080811-07:16:17.484|10=056|8=FIX.4.2|9=58|35=0|34=519|49=OMS|52=20080811-07:16:48.015|56=STREAMBASE|10=031|8=FIX.4.2|9=58|35=0|34=520|49=OMS|52=20080811-07:17:18.031|56=STREAMBASE|10=019|8=FIX.4.2|9=58|35=0|34=521|49=OMS|52=20080811-07:17:48.031|56=STREAMBASE|10=023|8=FIX.4.2|9=58|35=0|34=522|49=OMS|52=20080811-07:18:18.046|56=STREAMBASE|10=028|8=FIX.4.2|9=58|35=0|34=523|49=OMS|52=20080811-07:18:48.046|56=STREAMBASE|10=032|8=FIX.4.2|9=58|35=0|34=524|49=OMS|52=20080811-07:19:18.046|56=STREAMBASE|10=031|8=FIX.4.2|9=58|35=0|34=525|49=OMS|52=20080811-07:19:48.046|56=STREAMBASE|10=035|8=FIX.4.2|9=58|35=0|34=526|49=OMS|52=20080811-07:20:18.062|56=STREAMBASE|10=023|8=FIX.4.2|9=141|35=D|34=527|49=OMS|52=20080811-07:20:47.890|56=STREAMBASE|11=1218439247900|21=1|38=100|40=2|44=100|54=1|55=ibm|59=0|60=20080811-07:20:47.890|10=041|8=FIX.4.2|9=141|35=D|34=528|49=OMS|52=20080811-07:20:51.453|56=STREAMBASE|11=1218439251467|21=1|38=100|40=2|44=100|54=1|55=ibm|59=0|60=20080811-07:20:51.453|10=025|8=FIX.4.2|9=141|35=D|34=529|49=OMS|52=20080811-07:20:52.531|56=STREAMBASE|11=1218439252549|21=1|38=100|40=2|44=100|54=1|55=ibm|59=0|60=20080811-07:20:52.531|10=024|8=FIX.4.2|9=141|35=D|34=530|49=OMS|52=20080811-07:20:53.281|56=STREAMBASE|11=1218439253303|21=1|38=100|40=2|44=100|54=1|55=ibm|59=0|60=20080811-07:20:53.281|10=011|8=FIX.4.2|9=141|35=D|34=531|49=OMS|52=20080811-07:20:53.937|56=STREAMBASE|11=1218439253963|21=1|38=100|40=2|44=100|54=1|55=ibm|59=0|60=20080811-07:20:53.937|10=040|8=FIX.4.2|9=141|35=D|34=532|49=OMS|52=20080811-07:20:54.500|56=STREAMBASE|11=1218439254530|21=1|38=100|40=2|44=100|54=1|55=ibm|59=0|60=20080811-07:20:54.500|10=006|8=FIX.4.2|9=141|35=D|34=533|49=OMS|52=20080811-07:20:55.078|56=STREAMBASE|11=1218439255112|21=1|38=100|40=2|44=100|54=1|55=ibm|59=0|60=20080811-07:20:55.078|10=026|8=FIX.4.2|9=141|35=D|34=534|49=OMS|52=20080811-07:20:55.812|56=STREAMBASE|11=1218439255850|21=1|38=100|40=2|44=100|54=1|55=ibm|59=0|60=20080811-07:20:55.812|10=028|8=FIX.4.2|9=141|35=D|34=535|49=OMS|52=20080811-07:20:56.437|56=STREAMBASE|11=1218439256479|21=1|38=100|40=2|44=100|54=1|55=ibm|59=0|60=20080811-07:20:56.437|10=045|8=FIX.4.2|9=141|35=D|34=536|49=OMS|52=20080811-07:20:57.000|56=STREAMBASE|11=1218439257046|21=1|38=100|40=2|44=100|54=1|55=ibm|59=0|60=20080811-07:20:57.000|10=011|8=FIX.4.2|9=141|35=D|34=537|49=OMS|52=20080811-07:20:57.546|56=STREAMBASE|11=1218439257596|21=1|38=100|40=2|44=100|54=1|55=ibm|59=0|60=20080811-07:20:57.546|10=052|8=FIX.4.2|9=141|35=D|34=538|49=OMS|52=20080811-07:20:58.109|56=STREAMBASE|11=1218439258163|21=1|38=100|40=2|44=100|54=1|55=ibm|59=0|60=20080811-07:20:58.109|10=036|8=FIX.4.2|9=141|35=D|34=539|49=OMS|52=20080811-07:20:58.671|56=STREAMBASE|11=1218439258729|21=1|38=100|40=2|44=100|54=1|55=ibm|59=0|60=20080811-07:20:58.671|10=053|8=FIX.4.2|9=141|35=D|34=540|49=OMS|52=20080811-07:20:59.265|56=STREAMBASE|11=1218439259327|21=1|38=100|40=2|44=100|54=1|55=ibm|59=0|60=20080811-07:20:59.265|10=040|8=FIX.4.2|9=141|35=D|34=541|49=OMS|52=20080811-07:20:59.984|56=STREAMBASE|11=1218439260034|21=1|38=100|40=2|44=100|54=1|55=ibm|59=0|60=20080811-07:20:59.968|10=046|8=FIX.4.2|9=58|35=0|34=542|49=OMS|52=20080811-07:21:30.078|56=STREAMBASE|10=023|8=FIX.4.2|9=58|35=0|34=543|49=OMS|52=20080811-07:22:00.093|56=STREAMBASE|10=019|8=FIX.4.2|9=58|35=0|34=544|49=OMS|52=20080811-07:22:30.093|56=STREAMBASE|10=023|8=FIX.4.2|9=58|35=0|34=545|49=OMS|52=20080811-07:23:00.093|56=STREAMBASE|10=022|8=FIX.4.2|9=58|35=0|34=546|49=OMS|52=20080811-07:23:30.109|56=STREAMBASE|10=024|8=FIX.4.2|9=58|35=0|34=547|49=OMS|52=20080811-07:24:00.109|56=STREAMBASE|10=023|8=FIX.4.2|9=58|35=0|34=548|49=OMS|52=20080811-07:24:30.109|56=STREAMBASE|10=027|8=FIX.4.2|9=58|35=0|34=549|49=OMS|52=20080811-07:25:00.109|56=STREAMBASE|10=026|8=FIX.4.2|9=58|35=0|34=550|49=OMS|52=20080811-07:25:30.125|56=STREAMBASE|10=019|8=FIX.4.2|9=58|35=0|34=551|49=OMS|52=20080811-07:26:00.125|56=STREAMBASE|10=018|8=FIX.4.2|9=70|35=A|34=552|49=OMS|52=20080811-07:26:27.531|56=STREAMBASE|98=0|108=30|10=065|8=FIX.4.2|9=70|35=A|34=553|49=OMS|52=20080811-07:27:01.343|56=STREAMBASE|98=0|108=30|10=060|8=FIX.4.2|9=141|35=D|34=554|49=OMS|52=20080811-07:27:13.359|56=STREAMBASE|11=1218439633267|21=1|38=100|40=2|44=100|54=1|55=ibm|59=0|60=20080811-07:27:13.359|10=046|8=FIX.4.2|9=141|35=D|34=555|49=OMS|52=20080811-07:27:21.562|56=STREAMBASE|11=1218439641568|21=1|38=100|40=2|44=100|54=1|55=ibm|59=0|60=20080811-07:27:21.562|10=040|8=FIX.4.2|9=141|35=D|34=556|49=OMS|52=20080811-07:27:47.109|56=STREAMBASE|11=1218439667103|21=1|38=100|40=2|44=100|54=1|55=ibm|59=0|60=20080811-07:27:47.109|10=044|8=FIX.4.2|9=141|35=D|34=557|49=OMS|52=20080811-07:28:04.578|56=STREAMBASE|11=1218439684592|21=1|38=100|40=2|44=100|54=1|55=ibm|59=0|60=20080811-07:28:04.578|10=064|8=FIX.4.2|9=70|35=A|34=558|49=OMS|52=20080811-07:28:44.406|56=STREAMBASE|98=0|108=30|10=073|8=FIX.4.2|9=140|35=D|34=559|49=OMS|52=20080811-07:28:55.656|56=STREAMBASE|11=1218439735595|21=1|38=100|40=2|44=10|54=1|55=ibm|59=0|60=20080811-07:28:55.656|10=023|8=FIX.4.2|9=140|35=D|34=560|49=OMS|52=20080811-07:29:06.171|56=STREAMBASE|11=1218439746177|21=1|38=100|40=2|44=10|54=1|55=ibm|59=0|60=20080811-07:29:06.171|10=247|8=FIX.4.2|9=58|35=0|34=561|49=OMS|52=20080811-07:29:36.375|56=STREAMBASE|10=038|8=FIX.4.2|9=140|35=D|34=562|49=OMS|52=20080811-07:29:44.093|56=STREAMBASE|11=1218439784103|21=1|38=100|40=2|44=10|54=1|55=ibm|59=0|60=20080811-07:29:44.093|10=250|8=FIX.4.2|9=58|35=0|34=563|49=OMS|52=20080811-07:30:14.375|56=STREAMBASE|10=028|8=FIX.4.2|9=58|35=0|34=564|49=OMS|52=20080811-07:30:44.375|56=STREAMBASE|10=032|8=FIX.4.2|9=58|35=0|34=565|49=OMS|52=20080811-07:31:14.625|56=STREAMBASE|10=029|8=FIX.4.2|9=58|35=0|34=566|49=OMS|52=20080811-07:31:44.875|56=STREAMBASE|10=040|8=FIX.4.2|9=58|35=0|34=567|49=OMS|52=20080811-07:32:15.281|56=STREAMBASE|10=031|8=FIX.4.2|9=70|35=A|34=568|49=OMS|52=20080811-07:34:13.625|56=STREAMBASE|98=0|108=30|10=070|8=FIX.4.2|9=140|35=D|34=569|49=OMS|52=20080811-07:34:25.859|56=STREAMBASE|11=1218440065783|21=1|38=100|40=2|44=10|54=1|55=ibm|59=0|60=20080811-07:34:25.859|10=009|8=FIX.4.2|9=140|35=D|34=570|49=OMS|52=20080811-07:34:37.625|56=STREAMBASE|11=1218440077631|21=1|38=100|40=2|44=10|54=1|55=ibm|59=0|60=20080811-07:34:37.625|10=240|8=FIX.4.2|9=58|35=0|34=571|49=OMS|52=20080811-07:35:07.625|56=STREAMBASE|10=032|8=FIX.4.2|9=58|35=0|34=572|49=OMS|52=20080811-07:35:37.625|56=STREAMBASE|10=036|8=FIX.4.2|9=58|35=0|34=573|49=OMS|52=20080811-07:36:07.625|56=STREAMBASE|10=035|8=FIX.4.2|9=58|35=0|34=574|49=OMS|52=20080811-07:36:37.625|56=STREAMBASE|10=039|8=FIX.4.2|9=58|35=0|34=575|49=OMS|52=20080811-07:37:07.625|56=STREAMBASE|10=038|8=FIX.4.2|9=140|35=D|34=576|49=OMS|52=20080811-07:37:32.015|56=STREAMBASE|11=1218440252025|21=1|38=100|40=2|44=10|54=1|55=ibm|59=0|60=20080811-07:37:32.015|10=220|8=FIX.4.2|9=58|35=0|34=577|49=OMS|52=20080811-07:38:02.640|56=STREAMBASE|10=033|8=FIX.4.2|9=58|35=0|34=578|49=OMS|52=20080811-07:38:32.640|56=STREAMBASE|10=037|8=FIX.4.2|9=58|35=0|34=579|49=OMS|52=20080811-07:39:02.640|56=STREAMBASE|10=036|8=FIX.4.2|9=58|35=0|34=580|49=OMS|52=20080811-07:39:32.640|56=STREAMBASE|10=031|8=FIX.4.2|9=58|35=0|34=581|49=OMS|52=20080811-07:40:02.640|56=STREAMBASE|10=021|8=FIX.4.2|9=58|35=0|34=582|49=OMS|52=20080811-07:40:32.640|56=STREAMBASE|10=025|8=FIX.4.2|9=58|35=0|34=583|49=OMS|52=20080811-07:41:02.640|56=STREAMBASE|10=024|8=FIX.4.2|9=58|35=0|34=584|49=OMS|52=20080811-07:41:32.656|56=STREAMBASE|10=035|8=FIX.4.2|9=58|35=0|34=585|49=OMS|52=20080811-07:42:02.656|56=STREAMBASE|10=034|8=FIX.4.2|9=140|35=D|34=586|49=OMS|52=20080811-07:42:29.828|56=STREAMBASE|11=1218440549842|21=1|38=100|40=2|44=10|54=1|55=ibm|59=0|60=20080811-07:42:29.828|10=009|8=FIX.4.2|9=58|35=0|34=587|49=OMS|52=20080811-07:43:00.671|56=STREAMBASE|10=032|8=FIX.4.2|9=58|35=0|34=588|49=OMS|52=20080811-07:43:30.671|56=STREAMBASE|10=036|8=FIX.4.2|9=58|35=0|34=589|49=OMS|52=20080811-07:44:01.656|56=STREAMBASE|10=039|8=FIX.4.2|9=58|35=0|34=590|49=OMS|52=20080811-07:44:31.656|56=STREAMBASE|10=034|8=FIX.4.2|9=140|35=D|34=591|49=OMS|52=20080811-07:44:53.250|56=STREAMBASE|11=1218440693268|21=1|38=100|40=2|44=10|54=1|55=ibm|59=0|60=20080811-07:44:53.250|10=239|8=FIX.4.2|9=140|35=D|34=592|49=OMS|52=20080811-07:45:12.750|56=STREAMBASE|11=1218440712772|21=1|38=100|40=2|44=10|54=1|55=ibm|59=0|60=20080811-07:45:12.750|10=234|8=FIX.4.2|9=140|35=D|34=593|49=OMS|52=20080811-07:45:13.687|56=STREAMBASE|11=1218440713713|21=1|38=100|40=2|44=10|54=1|55=ibm|59=0|60=20080811-07:45:13.687|10=251|8=FIX.4.2|9=140|35=D|34=594|49=OMS|52=20080811-07:45:14.218|56=STREAMBASE|11=1218440714248|21=1|38=100|40=2|44=10|54=1|55=ibm|59=0|60=20080811-07:45:14.218|10=238|8=FIX.4.2|9=140|35=D|34=595|49=OMS|52=20080811-07:45:14.828|56=STREAMBASE|11=1218440714862|21=1|38=100|40=2|44=10|54=1|55=ibm|59=0|60=20080811-07:45:14.828|10=255|8=FIX.4.2|9=140|35=D|34=596|49=OMS|52=20080811-07:45:15.546|56=STREAMBASE|11=1218440715584|21=1|38=100|40=2|44=10|54=1|55=ibm|59=0|60=20080811-07:45:15.546|10=254|8=FIX.4.2|9=140|35=D|34=597|49=OMS|52=20080811-07:45:16.109|56=STREAMBASE|11=1218440716151|21=1|38=100|40=2|44=10|54=1|55=ibm|59=0|60=20080811-07:45:16.109|10=238|8=FIX.4.2|9=140|35=D|34=598|49=OMS|52=20080811-07:45:16.593|56=STREAMBASE|11=1218440716639|21=1|38=100|40=2|44=10|54=1|55=ibm|59=0|60=20080811-07:45:16.593|10=008|8=FIX.4.2|9=140|35=D|34=599|49=OMS|52=20080811-07:45:17.031|56=STREAMBASE|11=1218440717081|21=1|38=100|40=2|44=10|54=1|55=ibm|59=0|60=20080811-07:45:17.031|10=233|8=FIX.4.2|9=140|35=D|34=600|49=OMS|52=20080811-07:45:17.437|56=STREAMBASE|11=1218440717475|21=1|38=100|40=2|44=10|54=1|55=ibm|59=0|60=20080811-07:45:17.421|10=236|8=FIX.4.2|9=140|35=D|34=601|49=OMS|52=20080811-07:45:17.953|56=STREAMBASE|11=1218440718011|21=1|38=100|40=2|44=10|54=1|55=ibm|59=0|60=20080811-07:45:17.953|10=237|8=FIX.4.2|9=140|35=D|34=602|49=OMS|52=20080811-07:45:18.421|56=STREAMBASE|11=1218440718483|21=1|38=100|40=2|44=10|54=1|55=ibm|59=0|60=20080811-07:45:18.421|10=233|8=FIX.4.2|9=140|35=D|34=603|49=OMS|52=20080811-07:45:18.906|56=STREAMBASE|11=1218440718972|21=1|38=100|40=2|44=10|54=1|55=ibm|59=0|60=20080811-07:45:18.906|10=253|8=FIX.4.2|9=140|35=D|34=604|49=OMS|52=20080811-07:45:19.296|56=STREAMBASE|11=1218440719366|21=1|38=100|40=2|44=10|54=1|55=ibm|59=0|60=20080811-07:45:19.296|10=002|8=FIX.4.2|9=140|35=D|34=605|49=OMS|52=20080811-07:45:19.515|56=STREAMBASE|11=1218440719589|21=1|38=100|40=2|44=10|54=1|55=ibm|59=0|60=20080811-07:45:19.515|10=254|8=FIX.4.2|9=140|35=D|34=606|49=OMS|52=20080811-07:45:19.703|56=STREAMBASE|11=1218440719781|21=1|38=100|40=2|44=10|54=1|55=ibm|59=0|60=20080811-07:45:19.703|10=247|8=FIX.4.2|9=140|35=D|34=607|49=OMS|52=20080811-07:45:19.875|56=STREAMBASE|11=1218440719957|21=1|38=100|40=2|44=10|54=1|55=ibm|59=0|60=20080811-07:45:19.875|10=017|8=FIX.4.2|9=58|35=0|34=608|49=OMS|52=20080811-07:45:50.687|56=STREAMBASE|10=040|8=FIX.4.2|9=58|35=0|34=609|49=OMS|52=20080811-07:46:20.687|56=STREAMBASE|10=039|8=FIX.4.2|9=70|35=A|34=610|49=OMS|52=20080811-12:39:03.515|56=STREAMBASE|98=0|108=30|10=056|8=FIX.4.2|9=140|35=D|34=611|49=OMS|52=20080811-12:39:22.717|56=STREAMBASE|11=1218458361843|21=1|38=100|40=2|44=10|54=1|55=IBM|59=0|60=20080811-12:39:22.702|10=138|8=FIX.4.2|9=140|35=D|34=612|49=OMS|52=20080811-12:39:24.204|56=STREAMBASE|11=1218458364210|21=1|38=100|40=2|44=10|54=1|55=IBM|59=0|60=20080811-12:39:24.204|10=122|8=FIX.4.2|9=140|35=D|34=613|49=OMS|52=20080811-12:39:24.721|56=STREAMBASE|11=1218458364731|21=1|38=100|40=2|44=10|54=1|55=IBM|59=0|60=20080811-12:39:24.721|10=139|8=FIX.4.2|9=140|35=D|34=614|49=OMS|52=20080811-12:39:25.112|56=STREAMBASE|11=1218458365126|21=1|38=100|40=2|44=10|54=1|55=IBM|59=0|60=20080811-12:39:25.112|10=129|8=FIX.4.2|9=140|35=D|34=615|49=OMS|52=20080811-12:39:25.456|56=STREAMBASE|11=1218458365474|21=1|38=100|40=2|44=10|54=1|55=IBM|59=0|60=20080811-12:39:25.456|10=158|8=FIX.4.2|9=140|35=D|34=616|49=OMS|52=20080811-12:39:25.832|56=STREAMBASE|11=1218458365854|21=1|38=100|40=2|44=10|54=1|55=IBM|59=0|60=20080811-12:39:25.832|10=157|8=FIX.4.2|9=140|35=D|34=617|49=OMS|52=20080811-12:39:26.896|56=STREAMBASE|11=1218458366922|21=1|38=100|40=2|44=10|54=1|55=IBM|59=0|60=20080811-12:39:26.896|10=177|8=FIX.4.2|9=58|35=0|34=618|49=OMS|52=20080811-12:39:57.068|56=STREAMBASE|10=040|8=FIX.4.2|9=58|35=0|34=619|49=OMS|52=20080811-12:40:27.101|56=STREAMBASE|10=018|8=FIX.4.2|9=58|35=0|34=620|49=OMS|52=20080811-12:40:57.118|56=STREAMBASE|10=021|8=FIX.4.2|9=58|35=0|34=621|49=OMS|52=20080811-12:41:27.151|56=STREAMBASE|10=017|8=FIX.4.2|9=58|35=0|34=622|49=OMS|52=20080811-12:41:57.168|56=STREAMBASE|10=029|8=FIX.4.2|9=58|35=0|34=623|49=OMS|52=20080811-12:42:27.201|56=STREAMBASE|10=016|8=FIX.4.2|9=58|35=0|34=624|49=OMS|52=20080811-12:42:57.218|56=STREAMBASE|10=028|8=FIX.4.2|9=58|35=0|34=625|49=OMS|52=20080811-12:43:27.236|56=STREAMBASE|10=027|8=FIX.4.2|9=58|35=0|34=626|49=OMS|52=20080811-12:43:57.253|56=STREAMBASE|10=030|8=FIX.4.2|9=58|35=0|34=627|49=OMS|52=20080811-12:44:27.270|56=STREAMBASE|10=028|8=FIX.4.2|9=58|35=0|34=628|49=OMS|52=20080811-12:44:57.297|56=STREAMBASE|10=041|8=FIX.4.2|9=58|35=0|34=629|49=OMS|52=20080811-12:45:27.303|56=STREAMBASE|10=028|8=FIX.4.2|9=58|35=0|34=630|49=OMS|52=20080811-12:45:57.309|56=STREAMBASE|10=029|8=FIX.4.2|9=58|35=0|34=631|49=OMS|52=20080811-12:46:27.331|56=STREAMBASE|10=023|8=FIX.4.2|9=58|35=0|34=632|49=OMS|52=20080811-12:46:58.313|56=STREAMBASE|10=028|8=FIX.4.2|9=58|35=0|34=633|49=OMS|52=20080811-12:47:29.286|56=STREAMBASE|10=037|8=FIX.4.2|9=58|35=0|34=634|49=OMS|52=20080811-12:48:00.244|56=STREAMBASE|10=022|8=FIX.4.2|9=58|35=0|34=635|49=OMS|52=20080811-12:48:31.202|56=STREAMBASE|10=021|8=FIX.4.2|9=58|35=0|34=636|49=OMS|52=20080811-12:49:02.160|56=STREAMBASE|10=024|8=FIX.4.2|9=58|35=0|34=637|49=OMS|52=20080811-12:49:33.134|56=STREAMBASE|10=030|8=FIX.4.2|9=58|35=0|34=638|49=OMS|52=20080811-12:50:04.107|56=STREAMBASE|10=021|8=FIX.4.2|9=58|35=0|34=639|49=OMS|52=20080811-12:50:35.081|56=STREAMBASE|10=027|8=FIX.4.2|9=58|35=0|34=640|49=OMS|52=20080811-12:51:06.054|56=STREAMBASE|10=018|8=FIX.4.2|9=70|35=A|34=641|49=OMS|52=20080811-12:51:42.162|56=STREAMBASE|98=0|108=30|10=055|8=FIX.4.2|9=140|35=D|34=642|49=OMS|52=20080811-12:51:51.745|56=STREAMBASE|11=1218459111653|21=1|38=100|40=2|44=10|54=1|55=IBM|59=0|60=20080811-12:51:51.714|10=131|8=FIX.4.2|9=58|35=0|34=643|49=OMS|52=20080811-12:52:22.072|56=STREAMBASE|10=020|8=FIX.4.2|9=140|35=D|34=644|49=OMS|52=20080811-12:52:37.337|56=STREAMBASE|11=1218459157343|21=1|38=100|40=2|44=10|54=1|55=IBM|59=0|60=20080811-12:52:37.337|10=147|8=FIX.4.2|9=140|35=D|34=645|49=OMS|52=20080811-12:52:37.852|56=STREAMBASE|11=1218459157862|21=1|38=100|40=2|44=10|54=1|55=IBM|59=0|60=20080811-12:52:37.852|10=158|8=FIX.4.2|9=140|35=D|34=646|49=OMS|52=20080811-12:52:38.242|56=STREAMBASE|11=1218459158256|21=1|38=100|40=2|44=10|54=1|55=IBM|59=0|60=20080811-12:52:38.242|10=145|8=FIX.4.2|9=140|35=D|34=647|49=OMS|52=20080811-12:52:38.554|56=STREAMBASE|11=1218459158572|21=1|38=100|40=2|44=10|54=1|55=IBM|59=0|60=20080811-12:52:38.554|10=159|8=FIX.4.2|9=58|35=0|34=648|49=OMS|52=20080811-12:53:09.053|56=STREAMBASE|10=030|8=FIX.4.2|9=58|35=0|34=649|49=OMS|52=20080811-12:53:40.020|56=STREAMBASE|10=020|8=FIX.4.2|9=58|35=0|34=650|49=OMS|52=20080811-12:54:11.002|56=STREAMBASE|10=011|8=FIX.4.2|9=58|35=0|34=651|49=OMS|52=20080811-12:54:41.969|56=STREAMBASE|10=037|8=FIX.4.2|9=58|35=0|34=652|49=OMS|52=20080811-12:55:12.936|56=STREAMBASE|10=031|8=FIX.4.2|9=58|35=0|34=653|49=OMS|52=20080811-12:55:43.919|56=STREAMBASE|10=037|8=FIX.4.2|9=70|35=A|34=654|49=OMS|52=20080811-13:09:04.374|56=STREAMBASE|98=0|108=30|10=066|8=FIX.4.2|9=140|35=D|34=655|49=OMS|52=20080811-13:09:16.551|56=STREAMBASE|11=1218460156475|21=1|38=100|40=2|44=10|54=1|55=IBM|59=0|60=20080811-13:09:16.535|10=144|8=FIX.4.2|9=140|35=D|34=656|49=OMS|52=20080811-13:09:17.737|56=STREAMBASE|11=1218460157743|21=1|38=100|40=2|44=10|54=1|55=IBM|59=0|60=20080811-13:09:17.737|10=156|8=FIX.4.2|9=140|35=D|34=657|49=OMS|52=20080811-13:09:18.408|56=STREAMBASE|11=1218460158418|21=1|38=100|40=2|44=10|54=1|55=IBM|59=0|60=20080811-13:09:18.408|10=149|8=FIX.4.2|9=140|35=D|34=658|49=OMS|52=20080811-13:09:19.314|56=STREAMBASE|11=1218460159328|21=1|38=100|40=2|44=10|54=1|55=IBM|59=0|60=20080811-13:09:19.314|10=145|8=FIX.4.2|9=70|35=A|34=659|49=OMS|52=20080811-13:11:41.356|56=STREAMBASE|98=0|108=30|10=065|8=FIX.4.2|9=58|35=0|34=660|49=OMS|52=20080811-13:12:11.999|56=STREAMBASE|10=032|8=FIX.4.2|9=140|35=D|34=661|49=OMS|52=20080811-13:12:36.758|56=STREAMBASE|11=1218460356666|21=1|38=100|40=2|44=10|54=1|55=ibm|59=0|60=20080811-13:12:36.742|10=242|8=FIX.4.2|9=140|35=D|34=662|49=OMS|52=20080811-13:12:37.819|56=STREAMBASE|11=1218460357825|21=1|38=100|40=2|44=10|54=1|55=ibm|59=0|60=20080811-13:12:37.819|10=246|8=FIX.4.2|9=140|35=D|34=663|49=OMS|52=20080811-13:12:39.708|56=STREAMBASE|11=1218460359718|21=1|38=100|40=2|44=10|54=1|55=ibm|59=0|60=20080811-13:12:39.708|10=248|8=FIX.4.2|9=140|35=D|34=664|49=OMS|52=20080811-13:12:45.156|56=STREAMBASE|11=1218460365170|21=1|38=100|40=2|44=10|54=1|55=ibm|59=0|60=20080811-13:12:45.156|10=226|8=FIX.4.2|9=140|35=D|34=665|49=OMS|52=20080811-13:12:54.476|56=STREAMBASE|11=1218460374494|21=1|38=100|40=2|44=10|54=1|55=ibm|59=0|60=20080811-13:12:54.476|10=246|8=FIX.4.2|9=140|35=D|34=666|49=OMS|52=20080811-13:12:55.288|56=STREAMBASE|11=1218460375310|21=1|38=100|40=2|44=10|54=1|55=ibm|59=0|60=20080811-13:12:55.288|10=239|8=FIX.4.2|9=140|35=D|34=667|49=OMS|52=20080811-13:12:55.787|56=STREAMBASE|11=1218460375813|21=1|38=100|40=2|44=10|54=1|55=ibm|59=0|60=20080811-13:12:55.787|10=000|8=FIX.4.2|9=58|35=0|34=668|49=OMS|52=20080811-13:13:26.244|56=STREAMBASE|10=030|8=FIX.4.2|9=58|35=0|34=669|49=OMS|52=20080811-13:13:57.216|56=STREAMBASE|10=034|8=FIX.4.2|9=58|35=0|34=670|49=OMS|52=20080811-13:14:28.187|56=STREAMBASE|10=032|8=FIX.4.2|9=58|35=0|34=671|49=OMS|52=20080811-13:14:59.175|56=STREAMBASE|10=034|8=FIX.4.2|9=58|35=0|34=672|49=OMS|52=20080811-13:15:30.147|56=STREAMBASE|10=024|8=FIX.4.2|9=58|35=0|34=673|49=OMS|52=20080811-13:16:01.118|56=STREAMBASE|10=022|8=FIX.4.2|9=58|35=0|34=674|49=OMS|52=20080811-13:16:32.106|56=STREAMBASE|10=024|8=FIX.4.2|9=58|35=0|34=675|49=OMS|52=20080811-13:17:03.078|56=STREAMBASE|10=032|8=FIX.4.2|9=58|35=0|34=676|49=OMS|52=20080811-13:17:34.050|56=STREAMBASE|10=027|8=FIX.4.2|9=58|35=0|34=677|49=OMS|52=20080811-13:18:05.021|56=STREAMBASE|10=025|8=FIX.4.2|9=58|35=0|34=678|49=OMS|52=20080811-13:18:35.993|56=STREAMBASE|10=047|8=FIX.4.2|9=58|35=0|34=679|49=OMS|52=20080811-13:19:06.965|56=STREAMBASE|10=046|8=FIX.4.2|9=58|35=0|34=680|49=OMS|52=20080811-13:19:37.937|56=STREAMBASE|10=041|8=FIX.4.2|9=58|35=0|34=681|49=OMS|52=20080811-13:20:08.909|56=STREAMBASE|10=031|8=FIX.4.2|9=58|35=0|34=682|49=OMS|52=20080811-13:20:39.896|56=STREAMBASE|10=041|8=FIX.4.2|9=58|35=0|34=683|49=OMS|52=20080811-13:21:09.974|56=STREAMBASE|10=037|8=FIX.4.2|9=58|35=0|34=684|49=OMS|52=20080811-13:21:40.107|56=STREAMBASE|10=021|8=FIX.4.2|9=70|35=A|34=685|49=OMS|52=20080811-13:22:46.054|56=STREAMBASE|98=0|108=30|10=066|8=FIX.4.2|9=58|35=0|34=686|49=OMS|52=20080811-13:23:16.139|56=STREAMBASE|10=033|8=FIX.4.2|9=58|35=0|34=687|49=OMS|52=20080811-13:23:46.272|56=STREAMBASE|10=035|8=FIX.4.2|9=70|35=A|34=688|49=OMS|52=20080811-13:23:59.675|56=STREAMBASE|98=0|108=30|10=083|8=FIX.4.2|9=140|35=D|34=689|49=OMS|52=20080811-13:24:08.966|56=STREAMBASE|11=1218461048892|21=1|38=100|40=2|44=10|54=1|55=IBM|59=0|60=20080811-13:24:08.966|10=169|8=FIX.4.2|9=140|35=D|34=690|49=OMS|52=20080811-13:24:11.760|56=STREAMBASE|11=1218461051770|21=1|38=100|40=2|44=10|54=1|55=IBM|59=0|60=20080811-13:24:11.760|10=122|8=FIX.4.2|9=140|35=D|34=691|49=OMS|52=20080811-13:24:12.183|56=STREAMBASE|11=1218461052199|21=1|38=100|40=2|44=10|54=1|55=IBM|59=0|60=20080811-13:24:12.183|10=129|8=FIX.4.2|9=140|35=D|34=692|49=OMS|52=20080811-13:24:12.607|56=STREAMBASE|11=1218461052629|21=1|38=100|40=2|44=10|54=1|55=IBM|59=0|60=20080811-13:24:12.607|10=130|8=FIX.4.2|9=58|35=0|34=693|49=OMS|52=20080811-13:24:42.850|56=STREAMBASE|10=031|8=FIX.4.2|9=58|35=0|34=694|49=OMS|52=20080811-13:25:12.983|56=STREAMBASE|10=037|8=FIX.4.2|9=140|35=D|34=695|49=OMS|52=20080811-13:25:13.783|56=STREAMBASE|11=1218461114024|21=1|38=100|40=2|44=10|54=1|55=IBM|59=0|60=20080811-13:25:13.783|10=135|8=FIX.4.2|9=140|35=D|34=696|49=OMS|52=20080811-13:25:14.678|56=STREAMBASE|11=1218461114925|21=1|38=100|40=2|44=10|54=1|55=IBM|59=0|60=20080811-13:25:14.678|10=154|8=FIX.4.2|9=140|35=D|34=697|49=OMS|52=20080811-13:25:15.321|56=STREAMBASE|11=1218461115574|21=1|38=100|40=2|44=10|54=1|55=IBM|59=0|60=20080811-13:25:15.321|10=128|8=FIX.4.2|9=140|35=D|34=698|49=OMS|52=20080811-13:25:15.949|56=STREAMBASE|11=1218461116208|21=1|38=100|40=2|44=10|54=1|55=IBM|59=0|60=20080811-13:25:15.949|10=156|8=FIX.4.2|9=140|35=D|34=699|49=OMS|52=20080811-13:25:16.514|56=STREAMBASE|11=1218461116779|21=1|38=100|40=2|44=10|54=1|55=IBM|59=0|60=20080811-13:25:16.514|10=148|8=FIX.4.2|9=140|35=D|34=700|49=OMS|52=20080811-13:25:16.781|56=STREAMBASE|11=1218461117052|21=1|38=100|40=2|44=10|54=1|55=IBM|59=0|60=20080811-13:25:16.781|10=128|8=FIX.4.2|9=140|35=D|34=701|49=OMS|52=20080811-13:25:17.016|56=STREAMBASE|11=1218461117293|21=1|38=100|40=2|44=10|54=1|55=IBM|59=0|60=20080811-13:25:17.016|10=120|8=FIX.4.2|9=140|35=D|34=702|49=OMS|52=20080811-13:25:26.621|56=STREAMBASE|11=1218461126904|21=1|38=100|40=2|44=10|54=1|55=IBM|59=0|60=20080811-13:25:26.621|10=124|8=FIX.4.2|9=58|35=0|34=703|49=OMS|52=20080811-13:25:57.182|56=STREAMBASE|10=028|8=FIX.4.2|9=58|35=0|34=704|49=OMS|52=20080811-13:26:27.252|56=STREAMBASE|10=025|8=FIX.4.2|9=58|35=0|34=705|49=OMS|52=20080811-13:26:57.323|56=STREAMBASE|10=028|8=FIX.4.2|9=58|35=0|34=706|49=OMS|52=20080811-13:27:27.394|56=STREAMBASE|10=035|8=FIX.4.2|9=58|35=0|34=707|49=OMS|52=20080811-13:27:57.480|56=STREAMBASE|10=035|8=FIX.4.2|9=58|35=0|34=708|49=OMS|52=20080811-13:28:27.566|56=STREAMBASE|10=039|8=FIX.4.2|9=58|35=0|34=709|49=OMS|52=20080811-13:28:57.653|56=STREAMBASE|10=040|8=FIX.4.2|9=58|35=0|34=710|49=OMS|52=20080811-13:29:27.739|56=STREAMBASE|10=035|8=FIX.4.2|9=58|35=0|34=711|49=OMS|52=20080811-13:29:57.825|56=STREAMBASE|10=035|8=FIX.4.2|9=58|35=0|34=712|49=OMS|52=20080811-13:30:27.912|56=STREAMBASE|10=022|8=FIX.4.2|9=140|35=D|34=713|49=OMS|52=20080811-13:30:42.258|56=STREAMBASE|11=1218461443227|21=1|38=100|40=2|44=10|54=1|55=IBM|59=0|60=20080811-13:30:42.258|10=126|8=FIX.4.2|9=140|35=D|34=714|49=OMS|52=20080811-13:30:42.775|56=STREAMBASE|11=1218461443752|21=1|38=100|40=2|44=10|54=1|55=IBM|59=0|60=20080811-13:30:42.775|10=138|8=FIX.4.2|9=140|35=D|34=715|49=OMS|52=20080811-13:30:42.947|56=STREAMBASE|11=1218461443932|21=1|38=100|40=2|44=10|54=1|55=IBM|59=0|60=20080811-13:30:42.947|10=141|8=FIX.4.2|9=140|35=D|34=716|49=OMS|52=20080811-13:30:43.103|56=STREAMBASE|11=1218461444096|21=1|38=100|40=2|44=10|54=1|55=IBM|59=0|60=20080811-13:30:43.103|10=114|8=FIX.4.2|9=70|35=A|34=717|49=OMS|52=20080811-13:30:54.316|56=STREAMBASE|98=0|108=30|10=061|8=FIX.4.2|9=140|35=D|34=718|49=OMS|52=20080811-13:31:05.193|56=STREAMBASE|11=1218461465105|21=1|38=100|40=2|44=10|54=1|55=IBM|59=0|60=20080811-13:31:05.177|10=128|8=FIX.4.2|9=140|35=D|34=719|49=OMS|52=20080811-13:31:06.038|56=STREAMBASE|11=1218461466052|21=1|38=100|40=2|44=10|54=1|55=IBM|59=0|60=20080811-13:31:06.038|10=127|8=FIX.4.2|9=140|35=D|34=720|49=OMS|52=20080811-13:31:06.585|56=STREAMBASE|11=1218461466607|21=1|38=100|40=2|44=10|54=1|55=IBM|59=0|60=20080811-13:31:06.585|10=139|8=FIX.4.2|9=140|35=D|34=721|49=OMS|52=20080811-13:31:07.227|56=STREAMBASE|11=1218461467241|21=1|38=100|40=2|44=10|54=1|55=IBM|59=0|60=20080811-13:31:07.211|10=116|8=FIX.4.2|9=140|35=D|34=722|49=OMS|52=20080811-13:31:08.151|56=STREAMBASE|11=1218461468189|21=1|38=100|40=2|44=10|54=1|55=IBM|59=0|60=20080811-13:31:08.151|10=130|8=FIX.4.2|9=140|35=D|34=723|49=OMS|52=20080811-13:31:08.839|56=STREAMBASE|11=1218461468885|21=1|38=100|40=2|44=10|54=1|55=IBM|59=0|60=20080811-13:31:08.839|10=160|8=FIX.4.2|9=58|35=0|34=724|49=OMS|52=20080811-13:31:39.357|56=STREAMBASE|10=032|8=FIX.4.2|9=70|35=A|34=725|49=OMS|52=20080811-13:32:01.752|56=STREAMBASE|98=0|108=30|10=058|8=FIX.4.2|9=140|35=D|34=726|49=OMS|52=20080811-13:32:10.876|56=STREAMBASE|11=1218461530788|21=1|38=100|40=2|44=10|54=1|55=IBM|59=0|60=20080811-13:32:10.860|10=138|8=FIX.4.2|9=140|35=D|34=727|49=OMS|52=20080811-13:32:13.051|56=STREAMBASE|11=1218461533065|21=1|38=100|40=2|44=10|54=1|55=IBM|59=0|60=20080811-13:32:13.051|10=113|8=FIX.4.2|9=140|35=D|34=728|49=OMS|52=20080811-13:32:13.615|56=STREAMBASE|11=1218461533637|21=1|38=100|40=2|44=10|54=1|55=IBM|59=0|60=20080811-13:32:13.615|10=131|8=FIX.4.2|9=58|35=0|34=729|49=OMS|52=20080811-13:32:43.788|56=STREAMBASE|10=041|8=FIX.4.2|9=58|35=0|34=730|49=OMS|52=20080811-13:33:13.852|56=STREAMBASE|10=023|8=FIX.4.2|9=70|35=A|34=731|49=OMS|52=20080811-13:33:40.770|56=STREAMBASE|98=0|108=30|10=059|8=FIX.4.2|9=140|35=D|34=732|49=OMS|52=20080811-13:33:49.253|56=STREAMBASE|11=1218461629180|21=1|38=100|40=2|44=10|54=1|55=IBM|59=0|60=20080811-13:33:49.253|10=141|8=FIX.4.2|9=140|35=D|34=733|49=OMS|52=20080811-13:33:49.675|56=STREAMBASE|11=1218461629689|21=1|38=100|40=2|44=10|54=1|55=IBM|59=0|60=20080811-13:33:49.675|10=172|8=FIX.4.2|9=140|35=D|34=734|49=OMS|52=20080811-13:33:49.879|56=STREAMBASE|11=1218461629901|21=1|38=100|40=2|44=10|54=1|55=IBM|59=0|60=20080811-13:33:49.879|10=172|8=FIX.4.2|9=140|35=D|34=735|49=OMS|52=20080811-13:33:50.066|56=STREAMBASE|11=1218461630096|21=1|38=100|40=2|44=10|54=1|55=IBM|59=0|60=20080811-13:33:50.066|10=130|8=FIX.4.2|9=58|35=0|34=736|49=OMS|52=20080811-13:34:20.803|56=STREAMBASE|10=024|8=FIX.4.2|9=140|35=D|34=737|49=OMS|52=20080811-13:34:25.279|56=STREAMBASE|11=1218461665473|21=1|38=100|40=2|44=10|54=1|55=IBM|59=0|60=20080811-13:34:25.279|10=157|8=FIX.4.2|9=70|35=A|34=738|49=OMS|52=20080811-13:34:35.327|56=STREAMBASE|98=0|108=30|10=069|8=FIX.4.2|9=58|35=0|34=739|49=OMS|52=20080811-13:35:05.328|56=STREAMBASE|10=033|8=FIX.4.2|9=140|35=D|34=740|49=OMS|52=20080811-13:35:06.721|56=STREAMBASE|11=1218461706648|21=1|38=100|40=2|44=10|54=1|55=IBM|59=0|60=20080811-13:35:06.721|10=135|8=FIX.4.2|9=140|35=D|34=741|49=OMS|52=20080811-13:35:07.331|56=STREAMBASE|11=1218461707349|21=1|38=100|40=2|44=10|54=1|55=IBM|59=0|60=20080811-13:35:07.331|10=131|8=FIX.4.2|9=140|35=D|34=742|49=OMS|52=20080811-13:35:07.754|56=STREAMBASE|11=1218461707784|21=1|38=100|40=2|44=10|54=1|55=IBM|59=0|60=20080811-13:35:07.754|10=153|8=FIX.4.2|9=70|35=A|34=743|49=OMS|52=20080811-13:35:27.692|56=STREAMBASE|98=0|108=30|10=072|8=FIX.4.2|9=140|35=D|34=744|49=OMS|52=20080811-13:35:36.471|56=STREAMBASE|11=1218461736388|21=1|38=100|40=2|44=10|54=1|55=IBM|59=0|60=20080811-13:35:36.471|10=153|8=FIX.4.2|9=140|35=D|34=745|49=OMS|52=20080811-13:35:37.176|56=STREAMBASE|11=1218461737198|21=1|38=100|40=2|44=10|54=1|55=IBM|59=0|60=20080811-13:35:37.176|10=160|8=FIX.4.2|9=140|35=D|34=746|49=OMS|52=20080811-13:35:37.630|56=STREAMBASE|11=1218461737648|21=1|38=100|40=2|44=10|54=1|55=IBM|59=0|60=20080811-13:35:37.614|10=153|8=FIX.4.2|9=58|35=0|34=747|49=OMS|52=20080811-13:36:07.705|56=STREAMBASE|10=034|8=FIX.4.2|9=58|35=0|34=748|49=OMS|52=20080811-13:36:37.761|56=STREAMBASE|10=040|8=FIX.4.2|9=58|35=0|34=749|49=OMS|52=20080811-13:37:07.800|56=STREAMBASE|10=033|8=FIX.4.2|9=58|35=0|34=750|49=OMS|52=20080811-13:37:37.856|56=STREAMBASE|10=039|8=FIX.4.2|9=70|35=A|34=751|49=OMS|52=20080811-13:40:19.683|56=STREAMBASE|98=0|108=30|10=068|8=FIX.4.2|9=140|35=D|34=752|49=OMS|52=20080811-13:40:35.749|56=STREAMBASE|11=1218462035681|21=1|38=100|40=2|44=10|54=1|55=IBM|59=0|60=20080811-13:40:35.749|10=147|8=FIX.4.2|9=140|35=D|34=753|49=OMS|52=20080811-13:40:36.731|56=STREAMBASE|11=1218462036753|21=1|38=100|40=2|44=10|54=1|55=IBM|59=0|60=20080811-13:40:36.731|10=133|8=FIX.4.2|9=140|35=D|34=754|49=OMS|52=20080811-13:40:37.058|56=STREAMBASE|11=1218462037092|21=1|38=100|40=2|44=10|54=1|55=IBM|59=0|60=20080811-13:40:37.058|10=137|8=FIX.4.2|9=140|35=D|34=755|49=OMS|52=20080811-13:40:37.214|56=STREAMBASE|11=1218462037260|21=1|38=100|40=2|44=10|54=1|55=IBM|59=0|60=20080811-13:40:37.214|10=123|8=FIX.4.2|9=58|35=0|34=756|49=OMS|52=20080811-13:41:07.521|56=STREAMBASE|10=026|8=FIX.4.2|9=58|35=0|34=757|49=OMS|52=20080811-13:41:38.437|56=STREAMBASE|10=037|8=FIX.4.2|9=58|35=0|34=758|49=OMS|52=20080811-13:42:09.368|56=STREAMBASE|10=040|8=FIX.4.2|9=58|35=0|34=759|49=OMS|52=20080811-13:42:40.283|56=STREAMBASE|10=032|8=FIX.4.2|9=58|35=0|34=760|49=OMS|52=20080811-13:43:11.267|56=STREAMBASE|10=025|8=FIX.4.2|9=58|35=0|34=761|49=OMS|52=20080811-13:43:42.263|56=STREAMBASE|10=026|8=FIX.4.2|9=58|35=0|34=762|49=OMS|52=20080811-13:44:12.291|56=STREAMBASE|10=026|8=FIX.4.2|9=58|35=0|34=763|49=OMS|52=20080811-13:44:43.272|56=STREAMBASE|10=030|8=FIX.4.2|9=58|35=0|34=764|49=OMS|52=20080811-13:45:14.268|56=STREAMBASE|10=035|8=FIX.4.2|9=58|35=0|34=765|49=OMS|52=20080811-13:45:45.264|56=STREAMBASE|10=036|8=FIX.4.2|9=58|35=0|34=766|49=OMS|52=20080811-13:46:16.259|56=STREAMBASE|10=040|8=FIX.4.2|9=58|35=0|34=767|49=OMS|52=20080811-13:46:47.255|56=STREAMBASE|10=041|8=FIX.4.2|9=58|35=0|34=768|49=OMS|52=20080811-13:47:18.251|56=STREAMBASE|10=037|8=FIX.4.2|9=58|35=0|34=769|49=OMS|52=20080811-13:47:49.247|56=STREAMBASE|10=047|8=FIX.4.2|9=58|35=0|34=770|49=OMS|52=20080811-13:48:19.264|56=STREAMBASE|10=036|8=FIX.4.2|9=58|35=0|34=771|49=OMS|52=20080811-13:48:49.283|56=STREAMBASE|10=041|8=FIX.4.2|9=58|35=0|34=772|49=OMS|52=20080811-13:49:19.302|56=STREAMBASE|10=032|8=FIX.4.2|9=70|35=A|34=773|49=OMS|52=20080811-13:50:07.277|56=STREAMBASE|98=0|108=FIX.4.2|9=58|35=0|34=774|49=OMS|52=20080811-13:50:19.341|56=STREAMBASE|10=029|8=FIX.4.2|9=58|35=0|34=775|49=OMS|52=20080811-13:50:49.360|56=STREAMBASE|10=034|8=FIX.4.2|9=58|35=0|34=776|49=OMS|52=20080811-13:51:19.395|56=STREAMBASE|10=041|1-13:50:22.263|56=STREAMBASE|98=0|108=30|10=064|8=FIX.4.2|9=70|35=A|34=777|49=OMS|52=20080811-13:50:27.295|56=STREAMBASE|98=0|108=30|10=075|8=FIX.4.2|9=70|35=A|34=778|49=OMS|52=20080811-13:50:32.280|56=STREAMBASE|98=0|108=30|10=066|8=FIX.4.2|9=70|35=A|34=779|49=OMS|52=20080811-13:50:37.280|56=STREAMBASE|98=0|108=30|10=072|8=FIX.4.2|9=70|35=A|34=780|49=OMS|52=20080811-13:50:42.281|56=STREAMBASE|98=0|108=30|10=061|8=FIX.4.2|9=70|35=A|34=781|49=OMS|52=20080811-13:50:47.282|56=STREAMBASE|98=0|108=30|10=068|8=FIX.4.2|9=70|35=A|34=782|49=OMS|52=20080811-13:50:52.298|56=STREAMBASE|98=0|108=30|10=072|8=FIX.4.2|9=70|35=A|34=783|49=OMS|52=20080811-13:50:57.298|56=STREAMBASE|98=0|108=30|10=078|8=FIX.4.2|9=70|35=A|34=784|49=OMS|52=20080811-13:51:02.299|56=STREAMBASE|98=0|108=30|10=071|8=FIX.4.2|9=70|35=A|34=785|49=OMS|52=20080811-13:51:07.300|56=STREAMBASE|98=0|108=30|10=060|8=FIX.4.2|9=70|35=A|34=786|49=OMS|52=20080811-13:51:12.300|56=STREAMBASE|98=0|108=30|10=057|8=FIX.4.2|9=70|35=A|34=787|49=OMS|52=20080811-13:51:17.317|56=STREAMBASE|98=0|108=30|10=071|8=FIX.4.2|9=70|35=A|34=788|49=OMS|52=20080811-13:51:22.317|56=STREAMBASE|98=0|108=30|10=068|8=FIX.4.2|9=70|35=A|34=789|49=OMS|52=20080811-13:51:27.302|56=STREAMBASE|98=0|108=30|10=068|8=FIX.4.2|9=70|35=A|34=790|49=OMS|52=20080811-13:51:33.318|56=STREAMBASE|98=0|108=30|10=064|8=FIX.4.2|9=70|35=A|34=791|49=OMS|52=20080811-13:51:38.319|56=STREAMBASE|98=0|108=30|10=071|8=FIX.4.2|9=70|35=A|34=792|49=OMS|52=20080811-13:54:05.669|56=STREAMBASE|98=0|108=30|10=077|8=FIX.4.2|9=69|35=2|34=793|49=OMS|52=20080811-13:54:05.763|56=STREAMBASE|7=571|16=0|10=016|8=FIX.4.2|9=58|35=0|34=794|49=OMS|52=20080811-13:54:36.087|56=STREAMBASE|10=041|8=FIX.4.2|9=58|35=0|34=795|49=OMS|52=20080811-13:55:06.662|56=STREAMBASE|10=039|8=FIX.4.2|9=58|35=0|34=796|49=OMS|52=20080811-13:55:36.675|56=STREAMBASE|10=047|8=FIX.4.2|9=58|35=0|34=797|49=OMS|52=20080811-13:56:06.688|56=STREAMBASE|10=050|8=FIX.4.2|9=58|35=0|34=798|49=OMS|52=20080811-13:56:36.701|56=STREAMBASE|10=040|8=FIX.4.2|9=58|35=0|34=799|49=OMS|52=20080811-13:57:06.714|56=STREAMBASE|10=043|8=FIX.4.2|9=58|35=0|34=800|49=OMS|52=20080811-13:57:36.727|56=STREAMBASE|10=033|8=FIX.4.2|9=58|35=0|34=801|49=OMS|52=20080811-13:58:06.739|56=STREAMBASE|10=035|8=FIX.4.2|9=58|35=0|34=802|49=OMS|52=20080811-13:58:36.752|56=STREAMBASE|10=034|8=FIX.4.2|9=58|35=0|34=803|49=OMS|52=20080811-13:59:06.765|56=STREAMBASE|10=037|8=FIX.4.2|9=58|35=0|34=804|49=OMS|52=20080811-13:59:36.794|56=STREAMBASE|10=043|8=FIX.4.2|9=58|35=0|34=805|49=OMS|52=20080811-14:00:06.808|56=STREAMBASE|10=024|8=FIX.4.2|9=58|35=0|34=806|49=OMS|52=20080811-14:00:36.823|56=STREAMBASE|10=025|8=FIX.4.2|9=58|35=0|34=807|49=OMS|52=20080811-14:01:06.838|56=STREAMBASE|10=030|8=FIX.4.2|9=58|35=0|34=808|49=OMS|52=20080811-14:01:36.854|56=STREAMBASE|10=032|8=FIX.4.2|9=58|35=0|34=809|49=OMS|52=20080811-14:02:06.869|56=STREAMBASE|10=037|8=FIX.4.2|9=58|35=0|34=810|49=OMS|52=20080811-14:02:36.884|56=STREAMBASE|10=029|8=FIX.4.2|9=58|35=0|34=811|49=OMS|52=20080811-14:03:06.899|56=STREAMBASE|10=034|8=FIX.4.2|9=58|35=0|34=812|49=OMS|52=20080811-14:03:36.914|56=STREAMBASE|10=026|8=FIX.4.2|9=58|35=0|34=813|49=OMS|52=20080811-14:04:06.929|56=STREAMBASE|10=031|8=FIX.4.2|9=58|35=0|34=814|49=OMS|52=20080811-14:04:36.945|56=STREAMBASE|10=033|8=FIX.4.2|9=58|35=0|34=815|49=OMS|52=20080811-14:05:06.960|56=STREAMBASE|10=029|8=FIX.4.2|9=58|35=0|34=816|49=OMS|52=20080811-14:05:36.976|56=STREAMBASE|10=040|8=FIX.4.2|9=58|35=0|34=817|49=OMS|52=20080811-14:06:06.992|56=STREAMBASE|10=037|8=FIX.4.2|9=58|35=0|34=818|49=OMS|52=20080811-14:06:37.007|56=STREAMBASE|10=029|8=FIX.4.2|9=58|35=0|34=819|49=OMS|52=20080811-14:07:07.039|56=STREAMBASE|10=033|8=FIX.4.2|9=140|35=D|34=820|49=OMS|52=20080811-14:07:16.731|56=STREAMBASE|11=1218463636827|21=1|38=100|40=2|44=10|54=1|55=IBM|59=0|60=20080811-14:07:16.731|10=141|8=FIX.4.2|9=140|35=D|34=821|49=OMS|52=20080811-14:07:17.403|56=STREAMBASE|11=1218463637605|21=1|38=100|40=2|44=10|54=1|55=IBM|59=0|60=20080811-14:07:17.403|10=131|8=FIX.4.2|9=140|35=D|34=822|49=OMS|52=20080811-14:07:18.029|56=STREAMBASE|11=1218463638227|21=1|38=100|40=2|44=10|54=1|55=IBM|59=0|60=20080811-14:07:18.013|10=136|8=FIX.4.2|9=140|35=D|34=823|49=OMS|52=20080811-14:07:18.263|56=STREAMBASE|11=1218463638489|21=1|38=100|40=2|44=10|54=1|55=IBM|59=0|60=20080811-14:07:18.263|10=154|8=FIX.4.2|9=140|35=D|34=824|49=OMS|52=20080811-14:07:18.451|56=STREAMBASE|11=1218463638689|21=1|38=100|40=2|44=10|54=1|55=IBM|59=0|60=20080811-14:07:18.451|10=155|8=FIX.4.2|9=140|35=D|34=825|49=OMS|52=20080811-14:07:18.623|56=STREAMBASE|11=1218463638873|21=1|38=100|40=2|44=10|54=1|55=IBM|59=0|60=20080811-14:07:18.623|10=153|8=FIX.4.2|9=140|35=D|34=826|49=OMS|52=20080811-14:07:18.810|56=STREAMBASE|11=1218463639072|21=1|38=100|40=2|44=10|54=1|55=IBM|59=0|60=20080811-14:07:18.810|10=142|8=FIX.4.2|9=58|35=0|34=827|49=OMS|52=20080811-14:07:49.076|56=STREAMBASE|10=039|8=FIX.4.2|9=58|35=0|34=828|49=OMS|52=20080811-14:08:19.092|56=STREAMBASE|10=036|8=FIX.4.2|9=58|35=0|34=829|49=OMS|52=20080811-14:08:49.123|56=STREAMBASE|10=035|8=FIX.4.2|9=58|35=0|34=830|49=OMS|52=20080811-14:09:19.139|56=STREAMBASE|10=032|8=FIX.4.2|9=70|35=A|34=831|49=OMS|52=20080811-14:09:26.205|56=STREAMBASE|98=0|108=30|10=061|8=FIX.4.2|9=58|35=0|34=832|49=OMS|52=20080811-14:09:56.299|56=STREAMBASE|10=042|8=FIX.4.2|9=58|35=0|34=833|49=OMS|52=20080811-14:10:26.628|56=STREAMBASE|10=028|8=FIX.4.2|9=58|35=0|34=834|49=OMS|52=20080811-14:10:56.644|56=STREAMBASE|10=030|8=FIX.4.2|9=58|35=0|34=835|49=OMS|52=20080811-14:11:26.661|56=STREAMBASE|10=028|8=FIX.4.2|9=58|35=0|34=836|49=OMS|52=20080811-14:11:56.692|56=STREAMBASE|10=036|8=FIX.4.2|9=58|35=0|34=837|49=OMS|52=20080811-14:12:26.709|56=STREAMBASE|10=034|8=FIX.4.2|9=58|35=0|34=838|49=OMS|52=20080811-14:12:56.725|56=STREAMBASE|10=036|8=FIX.4.2|9=58|35=0|34=839|49=OMS|52=20080811-14:13:26.741|56=STREAMBASE|10=033|8=FIX.4.2|9=58|35=0|34=840|49=OMS|52=20080811-14:13:56.758|56=STREAMBASE|10=036|8=FIX.4.2|9=58|35=0|34=841|49=OMS|52=20080811-14:14:26.774|56=STREAMBASE|10=033|8=FIX.4.2|9=58|35=0|34=842|49=OMS|52=20080811-14:14:57.337|56=STREAMBASE|10=033|